{
  "contractName": "CareRecordConsent",
  "abi": [
    {
      "inputs": [
        {
          "internalType": "address",
          "name": "_owner",
          "type": "address"
        },
        {
          "internalType": "address",
          "name": "_user",
          "type": "address"
        },
        {
          "internalType": "string",
          "name": "_uid",
          "type": "string"
        },
        {
          "internalType": "address",
          "name": "_registryContract",
          "type": "address"
        },
        {
          "internalType": "address",
          "name": "_EBM",
          "type": "address"
        }
      ],
      "payable": false,
      "stateMutability": "nonpayable",
      "type": "constructor"
    },
    {
      "anonymous": false,
      "inputs": [
        {
          "indexed": false,
          "internalType": "string",
          "name": "oid",
          "type": "string"
        },
        {
          "indexed": false,
          "internalType": "bytes32[]",
          "name": "target",
          "type": "bytes32[]"
        },
        {
          "indexed": false,
          "internalType": "uint256[]",
          "name": "level",
          "type": "uint256[]"
        },
        {
          "indexed": false,
          "internalType": "uint256",
          "name": "_start",
          "type": "uint256"
        },
        {
          "indexed": false,
          "internalType": "uint256",
          "name": "_end",
          "type": "uint256"
        }
      ],
      "name": "AddAuthWithLevelEvent",
      "type": "event"
    },
    {
      "anonymous": false,
      "inputs": [
        {
          "indexed": false,
          "internalType": "string",
          "name": "oid",
          "type": "string"
        },
        {
          "indexed": false,
          "internalType": "bytes32[]",
          "name": "target",
          "type": "bytes32[]"
        },
        {
          "indexed": false,
          "internalType": "bytes32[]",
          "name": "sourceKey",
          "type": "bytes32[]"
        },
        {
          "indexed": false,
          "internalType": "uint256",
          "name": "_start",
          "type": "uint256"
        },
        {
          "indexed": false,
          "internalType": "uint256",
          "name": "_end",
          "type": "uint256"
        }
      ],
      "name": "AddAuthWithSourceKeyEvent",
      "type": "event"
    },
    {
      "anonymous": false,
      "inputs": [
        {
          "indexed": true,
          "internalType": "string",
          "name": "id",
          "type": "string"
        },
        {
          "indexed": true,
          "internalType": "bytes32",
          "name": "sourceKey",
          "type": "bytes32"
        },
        {
          "indexed": false,
          "internalType": "string",
          "name": "oid",
          "type": "string"
        },
        {
          "indexed": false,
          "internalType": "uint256",
          "name": "role",
          "type": "uint256"
        },
        {
          "indexed": false,
          "internalType": "uint256",
          "name": "level1",
          "type": "uint256"
        },
        {
          "indexed": false,
          "internalType": "uint256",
          "name": "level2",
          "type": "uint256"
        },
        {
          "indexed": false,
          "internalType": "uint256",
          "name": "time",
          "type": "uint256"
        }
      ],
      "name": "AskAuthEvent",
      "type": "event"
    },
    {
      "anonymous": false,
      "inputs": [
        {
          "indexed": false,
          "internalType": "address",
          "name": "_registryContract",
          "type": "address"
        }
      ],
      "name": "SetRegistryContractEvent",
      "type": "event"
    },
    {
      "anonymous": false,
      "inputs": [
        {
          "indexed": false,
          "internalType": "address",
          "name": "newEBM",
          "type": "address"
        }
      ],
      "name": "TransferEBMEvent",
      "type": "event"
    },
    {
      "anonymous": false,
      "inputs": [
        {
          "indexed": false,
          "internalType": "address",
          "name": "newOwner",
          "type": "address"
        }
      ],
      "name": "TransferOwnerEvent",
      "type": "event"
    },
    {
      "anonymous": false,
      "inputs": [
        {
          "indexed": false,
          "internalType": "address",
          "name": "newUser",
          "type": "address"
        }
      ],
      "name": "TransferUserEvent",
      "type": "event"
    },
    {
      "constant": true,
      "inputs": [],
      "name": "EBM",
      "outputs": [
        {
          "internalType": "address",
          "name": "",
          "type": "address"
        }
      ],
      "payable": false,
      "stateMutability": "view",
      "type": "function"
    },
    {
      "constant": true,
      "inputs": [],
      "name": "owner",
      "outputs": [
        {
          "internalType": "address",
          "name": "",
          "type": "address"
        }
      ],
      "payable": false,
      "stateMutability": "view",
      "type": "function"
    },
    {
      "constant": true,
      "inputs": [],
      "name": "registryContract",
      "outputs": [
        {
          "internalType": "address",
          "name": "",
          "type": "address"
        }
      ],
      "payable": false,
      "stateMutability": "view",
      "type": "function"
    },
    {
      "constant": true,
      "inputs": [],
      "name": "user",
      "outputs": [
        {
          "internalType": "address",
          "name": "",
          "type": "address"
        }
      ],
      "payable": false,
      "stateMutability": "view",
      "type": "function"
    },
    {
      "constant": false,
      "inputs": [
        {
          "internalType": "string",
          "name": "oid",
          "type": "string"
        },
        {
          "internalType": "bytes32[]",
          "name": "target",
          "type": "bytes32[]"
        },
        {
          "internalType": "bytes32[]",
          "name": "sourceKey",
          "type": "bytes32[]"
        },
        {
          "internalType": "uint256",
          "name": "_start",
          "type": "uint256"
        },
        {
          "internalType": "uint256",
          "name": "_end",
          "type": "uint256"
        }
      ],
      "name": "addAuthWithSourceKey",
      "outputs": [],
      "payable": false,
      "stateMutability": "nonpayable",
      "type": "function"
    },
    {
      "constant": false,
      "inputs": [
        {
          "internalType": "string",
          "name": "oid",
          "type": "string"
        },
        {
          "internalType": "bytes32[]",
          "name": "target",
          "type": "bytes32[]"
        },
        {
          "internalType": "uint256[]",
          "name": "level",
          "type": "uint256[]"
        },
        {
          "internalType": "uint256",
          "name": "_start",
          "type": "uint256"
        },
        {
          "internalType": "uint256",
          "name": "_end",
          "type": "uint256"
        }
      ],
      "name": "addAuthWithLevel",
      "outputs": [],
      "payable": false,
      "stateMutability": "nonpayable",
      "type": "function"
    },
    {
      "constant": false,
      "inputs": [
        {
          "internalType": "string",
          "name": "old_oid",
          "type": "string"
        },
        {
          "internalType": "bytes32[]",
          "name": "old_target",
          "type": "bytes32[]"
        },
        {
          "internalType": "uint256[]",
          "name": "old_level",
          "type": "uint256[]"
        },
        {
          "internalType": "uint256",
          "name": "_old_start",
          "type": "uint256"
        },
        {
          "internalType": "uint256",
          "name": "_old_end",
          "type": "uint256"
        },
        {
          "internalType": "string",
          "name": "oid",
          "type": "string"
        },
        {
          "internalType": "bytes32[]",
          "name": "target",
          "type": "bytes32[]"
        },
        {
          "internalType": "uint256[]",
          "name": "level",
          "type": "uint256[]"
        },
        {
          "internalType": "uint256",
          "name": "_start",
          "type": "uint256"
        },
        {
          "internalType": "uint256",
          "name": "_end",
          "type": "uint256"
        }
      ],
      "name": "updateAuthWithLevel",
      "outputs": [],
      "payable": false,
      "stateMutability": "nonpayable",
      "type": "function"
    },
    {
      "constant": false,
      "inputs": [
        {
          "internalType": "string",
          "name": "oid",
          "type": "string"
        },
        {
          "internalType": "uint256",
          "name": "role",
          "type": "uint256"
        },
        {
          "internalType": "string",
          "name": "id",
          "type": "string"
        },
        {
          "internalType": "uint256",
          "name": "level1",
          "type": "uint256"
        },
        {
          "internalType": "uint256",
          "name": "level2",
          "type": "uint256"
        },
        {
          "internalType": "bytes32",
          "name": "sourceKey",
          "type": "bytes32"
        },
        {
          "internalType": "uint256",
          "name": "_now",
          "type": "uint256"
        }
      ],
      "name": "RecordOfAskAuth",
      "outputs": [],
      "payable": false,
      "stateMutability": "nonpayable",
      "type": "function"
    },
    {
      "constant": true,
      "inputs": [
        {
          "internalType": "string",
          "name": "oid",
          "type": "string"
        },
        {
          "internalType": "bytes32",
          "name": "target",
          "type": "bytes32"
        },
        {
          "internalType": "uint256",
          "name": "level1",
          "type": "uint256"
        },
        {
          "internalType": "uint256",
          "name": "level2",
          "type": "uint256"
        },
        {
          "internalType": "bytes32",
          "name": "sourceKey",
          "type": "bytes32"
        },
        {
          "internalType": "uint256",
          "name": "time",
          "type": "uint256"
        }
      ],
      "name": "isAuth",
      "outputs": [
        {
          "internalType": "bool",
          "name": "",
          "type": "bool"
        }
      ],
      "payable": false,
      "stateMutability": "view",
      "type": "function"
    },
    {
      "constant": true,
      "inputs": [
        {
          "internalType": "string",
          "name": "oid",
          "type": "string"
        },
        {
          "internalType": "bytes32",
          "name": "target",
          "type": "bytes32"
        },
        {
          "internalType": "bytes32",
          "name": "sourceKey",
          "type": "bytes32"
        }
      ],
      "name": "getAuthTimeWithSourceKey",
      "outputs": [
        {
          "internalType": "uint256",
          "name": "",
          "type": "uint256"
        },
        {
          "internalType": "uint256",
          "name": "",
          "type": "uint256"
        }
      ],
      "payable": false,
      "stateMutability": "view",
      "type": "function"
    },
    {
      "constant": true,
      "inputs": [
        {
          "internalType": "string",
          "name": "oid",
          "type": "string"
        },
        {
          "internalType": "bytes32",
          "name": "target",
          "type": "bytes32"
        },
        {
          "internalType": "uint256",
          "name": "level",
          "type": "uint256"
        }
      ],
      "name": "getAuthTimeWithLevel",
      "outputs": [
        {
          "internalType": "uint256",
          "name": "",
          "type": "uint256"
        },
        {
          "internalType": "uint256",
          "name": "",
          "type": "uint256"
        }
      ],
      "payable": false,
      "stateMutability": "view",
      "type": "function"
    },
    {
      "constant": false,
      "inputs": [
        {
          "internalType": "address",
          "name": "newOwner",
          "type": "address"
        }
      ],
      "name": "transferOwner",
      "outputs": [],
      "payable": false,
      "stateMutability": "nonpayable",
      "type": "function"
    },
    {
      "constant": false,
      "inputs": [
        {
          "internalType": "address",
          "name": "newEBM",
          "type": "address"
        }
      ],
      "name": "transferEBM",
      "outputs": [],
      "payable": false,
      "stateMutability": "nonpayable",
      "type": "function"
    },
    {
      "constant": false,
      "inputs": [
        {
          "internalType": "address",
          "name": "newUser",
          "type": "address"
        }
      ],
      "name": "transferUser",
      "outputs": [],
      "payable": false,
      "stateMutability": "nonpayable",
      "type": "function"
    },
    {
      "constant": false,
      "inputs": [
        {
          "internalType": "address",
          "name": "newRegistryContract",
          "type": "address"
        }
      ],
      "name": "transferRegistryContract",
      "outputs": [],
      "payable": false,
      "stateMutability": "nonpayable",
      "type": "function"
    }
  ],
  "bytecode": "0x60806040523480156200001157600080fd5b5060405162002b1638038062002b16833981810160405260a08110156200003757600080fd5b810190808051906020019092919080519060200190929190805160405193929190846401000000008211156200006c57600080fd5b838201915060208201858111156200008357600080fd5b8251866001820283011164010000000082111715620000a157600080fd5b8083526020830192505050908051906020019080838360005b83811015620000d7578082015181840152602081019050620000ba565b50505050905090810190601f168015620001055780820380516001836020036101000a031916815260200191505b506040526020018051906020019092919080519060200190929190505050846000806101000a81548173ffffffffffffffffffffffffffffffffffffffff021916908373ffffffffffffffffffffffffffffffffffffffff16021790555083600260006101000a81548173ffffffffffffffffffffffffffffffffffffffff021916908373ffffffffffffffffffffffffffffffffffffffff1602179055508260039080519060200190620001bc9291906200024a565b5081600460006101000a81548173ffffffffffffffffffffffffffffffffffffffff021916908373ffffffffffffffffffffffffffffffffffffffff16021790555080600160006101000a81548173ffffffffffffffffffffffffffffffffffffffff021916908373ffffffffffffffffffffffffffffffffffffffff1602179055505050505050620002f9565b828054600181600116156101000203166002900490600052602060002090601f016020900481019282601f106200028d57805160ff1916838001178555620002be565b82800160010185558215620002be579182015b82811115620002bd578251825591602001919060010190620002a0565b5b509050620002cd9190620002d1565b5090565b620002f691905b80821115620002f2576000816000905550600101620002d8565b5090565b90565b61280d80620003096000396000f3fe608060405234801561001057600080fd5b50600436106100f55760003560e01c80638adaf2f911610097578063dbb2adfb11610066578063dbb2adfb146108f8578063e64e645c1461093c578063f703160d14610986578063fd5529c014610d51576100f5565b80638adaf2f9146105895780638da5cb5b14610673578063a2522b4d146106bd578063aacd6a1214610701576100f5565b806344da10df116100d357806344da10df1461030c5780634f8632ba146103f65780634fb2e45d146104405780638a8bb41314610484576100f5565b806328c1f99b146100fa57806338d170731461014457806342472273146102c8575b600080fd5b610102610f48565b604051808273ffffffffffffffffffffffffffffffffffffffff1673ffffffffffffffffffffffffffffffffffffffff16815260200191505060405180910390f35b6102c6600480360360e081101561015a57600080fd5b810190808035906020019064010000000081111561017757600080fd5b82018360208201111561018957600080fd5b803590602001918460018302840111640100000000831117156101ab57600080fd5b91908080601f016020809104026020016040519081016040528093929190818152602001838380828437600081840152601f19601f820116905080830192505050505050509192919290803590602001909291908035906020019064010000000081111561021857600080fd5b82018360208201111561022a57600080fd5b8035906020019184600183028401116401000000008311171561024c57600080fd5b91908080601f016020809104026020016040519081016040528093929190818152602001838380828437600081840152601f19601f82011690508083019250505050505050919291929080359060200190929190803590602001909291908035906020019092919080359060200190929190505050610f6e565b005b61030a600480360360208110156102de57600080fd5b81019080803573ffffffffffffffffffffffffffffffffffffffff1690602001909291905050506110ee565b005b6103d96004803603606081101561032257600080fd5b810190808035906020019064010000000081111561033f57600080fd5b82018360208201111561035157600080fd5b8035906020019184600183028401116401000000008311171561037357600080fd5b91908080601f016020809104026020016040519081016040528093929190818152602001838380828437600081840152601f19601f82011690508083019250505050505050919291929080359060200190929190803590602001909291905050506111ee565b604051808381526020018281526020019250505060405180910390f35b6103fe61136f565b604051808273ffffffffffffffffffffffffffffffffffffffff1673ffffffffffffffffffffffffffffffffffffffff16815260200191505060405180910390f35b6104826004803603602081101561045657600080fd5b81019080803573ffffffffffffffffffffffffffffffffffffffff169060200190929190505050611395565b005b61056f600480360360c081101561049a57600080fd5b81019080803590602001906401000000008111156104b757600080fd5b8201836020820111156104c957600080fd5b803590602001918460018302840111640100000000831117156104eb57600080fd5b91908080601f016020809104026020016040519081016040528093929190818152602001838380828437600081840152601f19601f8201169050808301925050505050505091929192908035906020019092919080359060200190929190803590602001909291908035906020019092919080359060200190929190505050611494565b604051808215151515815260200191505060405180910390f35b6106566004803603606081101561059f57600080fd5b81019080803590602001906401000000008111156105bc57600080fd5b8201836020820111156105ce57600080fd5b803590602001918460018302840111640100000000831117156105f057600080fd5b91908080601f016020809104026020016040519081016040528093929190818152602001838380828437600081840152601f19601f82011690508083019250505050505050919291929080359060200190929190803590602001909291905050506119a8565b604051808381526020018281526020019250505060405180910390f35b61067b611b29565b604051808273ffffffffffffffffffffffffffffffffffffffff1673ffffffffffffffffffffffffffffffffffffffff16815260200191505060405180910390f35b6106ff600480360360208110156106d357600080fd5b81019080803573ffffffffffffffffffffffffffffffffffffffff169060200190929190505050611b4e565b005b6108f6600480360360a081101561071757600080fd5b810190808035906020019064010000000081111561073457600080fd5b82018360208201111561074657600080fd5b8035906020019184600183028401116401000000008311171561076857600080fd5b91908080601f016020809104026020016040519081016040528093929190818152602001838380828437600081840152601f19601f820116905080830192505050505050509192919290803590602001906401000000008111156107cb57600080fd5b8201836020820111156107dd57600080fd5b803590602001918460208302840111640100000000831117156107ff57600080fd5b919080806020026020016040519081016040528093929190818152602001838360200280828437600081840152601f19601f8201169050808301925050505050505091929192908035906020019064010000000081111561085f57600080fd5b82018360208201111561087157600080fd5b8035906020019184602083028401116401000000008311171561089357600080fd5b919080806020026020016040519081016040528093929190818152602001838360200280828437600081840152601f19601f8201169050808301925050505050505091929192908035906020019092919080359060200190929190505050611c4f565b005b61093a6004803603602081101561090e57600080fd5b81019080803573ffffffffffffffffffffffffffffffffffffffff169060200190929190505050611fa1565b005b6109446120a1565b604051808273ffffffffffffffffffffffffffffffffffffffff1673ffffffffffffffffffffffffffffffffffffffff16815260200191505060405180910390f35b610d4f600480360361014081101561099d57600080fd5b81019080803590602001906401000000008111156109ba57600080fd5b8201836020820111156109cc57600080fd5b803590602001918460018302840111640100000000831117156109ee57600080fd5b91908080601f016020809104026020016040519081016040528093929190818152602001838380828437600081840152601f19601f82011690508083019250505050505050919291929080359060200190640100000000811115610a5157600080fd5b820183602082011115610a6357600080fd5b80359060200191846020830284011164010000000083111715610a8557600080fd5b919080806020026020016040519081016040528093929190818152602001838360200280828437600081840152601f19601f82011690508083019250505050505050919291929080359060200190640100000000811115610ae557600080fd5b820183602082011115610af757600080fd5b80359060200191846020830284011164010000000083111715610b1957600080fd5b919080806020026020016040519081016040528093929190818152602001838360200280828437600081840152601f19601f820116905080830192505050505050509192919290803590602001909291908035906020019092919080359060200190640100000000811115610b8d57600080fd5b820183602082011115610b9f57600080fd5b80359060200191846001830284011164010000000083111715610bc157600080fd5b91908080601f016020809104026020016040519081016040528093929190818152602001838380828437600081840152601f19601f82011690508083019250505050505050919291929080359060200190640100000000811115610c2457600080fd5b820183602082011115610c3657600080fd5b80359060200191846020830284011164010000000083111715610c5857600080fd5b919080806020026020016040519081016040528093929190818152602001838360200280828437600081840152601f19601f82011690508083019250505050505050919291929080359060200190640100000000811115610cb857600080fd5b820183602082011115610cca57600080fd5b80359060200191846020830284011164010000000083111715610cec57600080fd5b919080806020026020016040519081016040528093929190818152602001838360200280828437600081840152601f19601f82011690508083019250505050505050919291929080359060200190929190803590602001909291905050506120c7565b005b610f46600480360360a0811015610d6757600080fd5b8101908080359060200190640100000000811115610d8457600080fd5b820183602082011115610d9657600080fd5b80359060200191846001830284011164010000000083111715610db857600080fd5b91908080601f016020809104026020016040519081016040528093929190818152602001838380828437600081840152601f19601f82011690508083019250505050505050919291929080359060200190640100000000811115610e1b57600080fd5b820183602082011115610e2d57600080fd5b80359060200191846020830284011164010000000083111715610e4f57600080fd5b919080806020026020016040519081016040528093929190818152602001838360200280828437600081840152601f19601f82011690508083019250505050505050919291929080359060200190640100000000811115610eaf57600080fd5b820183602082011115610ec157600080fd5b80359060200191846020830284011164010000000083111715610ee357600080fd5b919080806020026020016040519081016040528093929190818152602001838360200280828437600081840152601f19601f8201169050808301925050505050505091929192908035906020019092919080359060200190929190505050612486565b005b600460009054906101000a900473ffffffffffffffffffffffffffffffffffffffff1681565b6000809054906101000a900473ffffffffffffffffffffffffffffffffffffffff1673ffffffffffffffffffffffffffffffffffffffff163373ffffffffffffffffffffffffffffffffffffffff1614610fc757600080fd5b81856040518082805190602001908083835b60208310610ffc5780518252602082019150602081019050602083039250610fd9565b6001836020036101000a03801982511681845116808217855250505050505090500191505060405180910390207f91f1c803f915ff4e4371f1b9e70e4b729caed69c00b024fb2e0d045663c7ffba89898888876040518080602001868152602001858152602001848152602001838152602001828103825287818151815260200191508051906020019080838360005b838110156110a757808201518184015260208101905061108c565b50505050905090810190601f1680156110d45780820380516001836020036101000a031916815260200191505b50965050505050505060405180910390a350505050505050565b6000809054906101000a900473ffffffffffffffffffffffffffffffffffffffff1673ffffffffffffffffffffffffffffffffffffffff163373ffffffffffffffffffffffffffffffffffffffff161461114757600080fd5b80600160006101000a81548173ffffffffffffffffffffffffffffffffffffffff021916908373ffffffffffffffffffffffffffffffffffffffff1602179055507f212fd0ba98c7174b59c3621214e639e0c0429a3a38275728418c460425eda1eb81604051808273ffffffffffffffffffffffffffffffffffffffff1673ffffffffffffffffffffffffffffffffffffffff16815260200191505060405180910390a150565b600080600260009054906101000a900473ffffffffffffffffffffffffffffffffffffffff1673ffffffffffffffffffffffffffffffffffffffff163373ffffffffffffffffffffffffffffffffffffffff161461124b57600080fd5b6005856040518082805190602001908083835b60208310611281578051825260208201915060208101905060208303925061125e565b6001836020036101000a038019825116818451168082178552505050505050905001915050908152602001604051809103902060008581526020019081526020016000206000848152602001908152602001600020546006866040518082805190602001908083835b6020831061130d57805182526020820191506020810190506020830392506112ea565b6001836020036101000a0380198251168184511680821785525050505050509050019150509081526020016040518091039020600086815260200190815260200160002060008581526020019081526020016000205491509150935093915050565b600260009054906101000a900473ffffffffffffffffffffffffffffffffffffffff1681565b6000809054906101000a900473ffffffffffffffffffffffffffffffffffffffff1673ffffffffffffffffffffffffffffffffffffffff163373ffffffffffffffffffffffffffffffffffffffff16146113ee57600080fd5b806000806101000a81548173ffffffffffffffffffffffffffffffffffffffff021916908373ffffffffffffffffffffffffffffffffffffffff1602179055507f686812491fef51d22aaa1c0edb55989394e0fd256443d6d4a3e1cc0dc31780e181604051808273ffffffffffffffffffffffffffffffffffffffff1673ffffffffffffffffffffffffffffffffffffffff16815260200191505060405180910390a150565b60008060009054906101000a900473ffffffffffffffffffffffffffffffffffffffff1673ffffffffffffffffffffffffffffffffffffffff163373ffffffffffffffffffffffffffffffffffffffff16146114ef57600080fd5b6007876040518082805190602001908083835b602083106115255780518252602082019150602081019050602083039250611502565b6001836020036101000a03801982511681845116808217855250505050505090500191505090815260200160405180910390206000878152602001908152602001600020600080815260200190815260200160002054821015801561161557506008876040518082805190602001908083835b602083106115bb5780518252602082019150602081019050602083039250611598565b6001836020036101000a038019825116818451168082178552505050505050905001915050908152602001604051809103902060008781526020019081526020016000206000808152602001908152602001600020548211155b8061174257506007876040518082805190602001908083835b60208310611651578051825260208201915060208101905060208303925061162e565b6001836020036101000a03801982511681845116808217855250505050505090500191505090815260200160405180910390206000878152602001908152602001600020600086815260200190815260200160002054821015801561174157506008876040518082805190602001908083835b602083106116e757805182526020820191506020810190506020830392506116c4565b6001836020036101000a038019825116818451168082178552505050505050905001915050908152602001604051809103902060008781526020019081526020016000206000868152602001908152602001600020548211155b5b8061186f57506007876040518082805190602001908083835b6020831061177e578051825260208201915060208101905060208303925061175b565b6001836020036101000a03801982511681845116808217855250505050505090500191505090815260200160405180910390206000878152602001908152602001600020600085815260200190815260200160002054821015801561186e57506008876040518082805190602001908083835b6020831061181457805182526020820191506020810190506020830392506117f1565b6001836020036101000a038019825116818451168082178552505050505050905001915050908152602001604051809103902060008781526020019081526020016000206000858152602001908152602001600020548211155b5b8061199c57506005876040518082805190602001908083835b602083106118ab5780518252602082019150602081019050602083039250611888565b6001836020036101000a03801982511681845116808217855250505050505090500191505090815260200160405180910390206000878152602001908152602001600020600084815260200190815260200160002054821015801561199b57506006876040518082805190602001908083835b60208310611941578051825260208201915060208101905060208303925061191e565b6001836020036101000a038019825116818451168082178552505050505050905001915050908152602001604051809103902060008781526020019081526020016000206000848152602001908152602001600020548211155b5b90509695505050505050565b600080600260009054906101000a900473ffffffffffffffffffffffffffffffffffffffff1673ffffffffffffffffffffffffffffffffffffffff163373ffffffffffffffffffffffffffffffffffffffff1614611a0557600080fd5b6007856040518082805190602001908083835b60208310611a3b5780518252602082019150602081019050602083039250611a18565b6001836020036101000a038019825116818451168082178552505050505050905001915050908152602001604051809103902060008581526020019081526020016000206000848152602001908152602001600020546008866040518082805190602001908083835b60208310611ac75780518252602082019150602081019050602083039250611aa4565b6001836020036101000a0380198251168184511680821785525050505050509050019150509081526020016040518091039020600086815260200190815260200160002060008581526020019081526020016000205491509150935093915050565b6000809054906101000a900473ffffffffffffffffffffffffffffffffffffffff1681565b600460009054906101000a900473ffffffffffffffffffffffffffffffffffffffff1673ffffffffffffffffffffffffffffffffffffffff163373ffffffffffffffffffffffffffffffffffffffff1614611ba857600080fd5b80600260006101000a81548173ffffffffffffffffffffffffffffffffffffffff021916908373ffffffffffffffffffffffffffffffffffffffff1602179055507f8843fe3c31cc61dc66ac4737567198edfeaf40be1c8fc90af728d9dc70898c3381604051808273ffffffffffffffffffffffffffffffffffffffff1673ffffffffffffffffffffffffffffffffffffffff16815260200191505060405180910390a150565b600260009054906101000a900473ffffffffffffffffffffffffffffffffffffffff1673ffffffffffffffffffffffffffffffffffffffff163373ffffffffffffffffffffffffffffffffffffffff1614611ca957600080fd5b60008090505b8451811015611e5b5760008090505b8451811015611e4d5782841115611cd457600080fd5b836005886040518082805190602001908083835b60208310611d0b5780518252602082019150602081019050602083039250611ce8565b6001836020036101000a03801982511681845116808217855250505050505090500191505090815260200160405180910390206000888581518110611d4c57fe5b602002602001015181526020019081526020016000206000878481518110611d7057fe5b6020026020010151815260200190815260200160002081905550826006886040518082805190602001908083835b60208310611dc15780518252602082019150602081019050602083039250611d9e565b6001836020036101000a03801982511681845116808217855250505050505090500191505090815260200160405180910390206000888581518110611e0257fe5b602002602001015181526020019081526020016000206000878481518110611e2657fe5b60200260200101518152602001908152602001600020819055508080600101915050611cbe565b508080600101915050611caf565b507ffa30f0e2a0a8519fdba257e30abe2229b482696540c2ce3ba2462ffdfa88ab8d858585858560405180806020018060200180602001868152602001858152602001848103845289818151815260200191508051906020019080838360005b83811015611ed6578082015181840152602081019050611ebb565b50505050905090810190601f168015611f035780820380516001836020036101000a031916815260200191505b50848103835288818151815260200191508051906020019060200280838360005b83811015611f3f578082015181840152602081019050611f24565b50505050905001848103825287818151815260200191508051906020019060200280838360005b83811015611f81578082015181840152602081019050611f66565b505050509050019850505050505050505060405180910390a15050505050565b6000809054906101000a900473ffffffffffffffffffffffffffffffffffffffff1673ffffffffffffffffffffffffffffffffffffffff163373ffffffffffffffffffffffffffffffffffffffff1614611ffa57600080fd5b80600460006101000a81548173ffffffffffffffffffffffffffffffffffffffff021916908373ffffffffffffffffffffffffffffffffffffffff1602179055507f21340f6870149aee5e87711f88f9eb35e64c40f28be9566ebcd715d13b87a78f81604051808273ffffffffffffffffffffffffffffffffffffffff1673ffffffffffffffffffffffffffffffffffffffff16815260200191505060405180910390a150565b600160009054906101000a900473ffffffffffffffffffffffffffffffffffffffff1681565b600260009054906101000a900473ffffffffffffffffffffffffffffffffffffffff1673ffffffffffffffffffffffffffffffffffffffff163373ffffffffffffffffffffffffffffffffffffffff161461212157600080fd5b60008090505b89518110156122c65760008090505b89518110156122b8578860078d6040518082805190602001908083835b602083106121765780518252602082019150602081019050602083039250612153565b6001836020036101000a038019825116818451168082178552505050505050905001915050908152602001604051809103902060008d85815181106121b757fe5b6020026020010151815260200190815260200160002060008c84815181106121db57fe5b60200260200101518152602001908152602001600020819055508760088d6040518082805190602001908083835b6020831061222c5780518252602082019150602081019050602083039250612209565b6001836020036101000a038019825116818451168082178552505050505050905001915050908152602001604051809103902060008d858151811061226d57fe5b6020026020010151815260200190815260200160002060008c848151811061229157fe5b60200260200101518152602001908152602001600020819055508080600101915050612136565b508080600101915050612127565b5060008090505b84518110156124795760008090505b845181101561246b57828411156122f257600080fd5b836007886040518082805190602001908083835b602083106123295780518252602082019150602081019050602083039250612306565b6001836020036101000a0380198251168184511680821785525050505050509050019150509081526020016040518091039020600088858151811061236a57fe5b60200260200101518152602001908152602001600020600087848151811061238e57fe5b6020026020010151815260200190815260200160002081905550826008886040518082805190602001908083835b602083106123df57805182526020820191506020810190506020830392506123bc565b6001836020036101000a0380198251168184511680821785525050505050509050019150509081526020016040518091039020600088858151811061242057fe5b60200260200101518152602001908152602001600020600087848151811061244457fe5b602002602001015181526020019081526020016000208190555080806001019150506122dc565b5080806001019150506122cd565b5050505050505050505050565b600260009054906101000a900473ffffffffffffffffffffffffffffffffffffffff1673ffffffffffffffffffffffffffffffffffffffff163373ffffffffffffffffffffffffffffffffffffffff16146124e057600080fd5b60008090505b84518110156126925760008090505b8451811015612684578284111561250b57600080fd5b836007886040518082805190602001908083835b60208310612542578051825260208201915060208101905060208303925061251f565b6001836020036101000a0380198251168184511680821785525050505050509050019150509081526020016040518091039020600088858151811061258357fe5b6020026020010151815260200190815260200160002060008784815181106125a757fe5b6020026020010151815260200190815260200160002081905550826008886040518082805190602001908083835b602083106125f857805182526020820191506020810190506020830392506125d5565b6001836020036101000a0380198251168184511680821785525050505050509050019150509081526020016040518091039020600088858151811061263957fe5b60200260200101518152602001908152602001600020600087848151811061265d57fe5b602002602001015181526020019081526020016000208190555080806001019150506124f5565b5080806001019150506124e6565b507f0791d378931781e9cffd4585b49ffbc18f66fa0c5405392feefb329c3b231bb8858585858560405180806020018060200180602001868152602001858152602001848103845289818151815260200191508051906020019080838360005b8381101561270d5780820151818401526020810190506126f2565b50505050905090810190601f16801561273a5780820380516001836020036101000a031916815260200191505b50848103835288818151815260200191508051906020019060200280838360005b8381101561277657808201518184015260208101905061275b565b50505050905001848103825287818151815260200191508051906020019060200280838360005b838110156127b857808201518184015260208101905061279d565b505050509050019850505050505050505060405180910390a1505050505056fea265627a7a72315820be6ff710e8c3a532b5c06bcf63209f51ff5d1904752a48a263437e2e0c68a2c464736f6c63430005100032",
  "source": "pragma solidity >=0.4.21 <0.7.0;\r\n\r\n\r\ncontract CareRecordConsent {\r\n    address public owner; //\r\n    address public EBM; //EBM\r\n    address public user; //user\r\n    string uid; //user id\r\n    address public registryContract; //\r\n\r\n    // =>=>sourceKey=>\r\n    mapping(string => mapping(bytes32 => mapping(bytes32 => uint256))) sStart;\r\n\r\n    // =>=>sourceKey=>\r\n    mapping(string => mapping(bytes32 => mapping(bytes32 => uint256))) sEnd;\r\n\r\n    // =>=>=>\r\n    mapping(string => mapping(bytes32 => mapping(uint256 => uint256))) lStart;\r\n\r\n    // =>=>=>\r\n    mapping(string => mapping(bytes32 => mapping(uint256 => uint256))) lEnd;\r\n\r\n    event AddAuthWithSourceKeyEvent(\r\n        string oid,\r\n        bytes32[] target,\r\n        bytes32[] sourceKey,\r\n        uint256 _start,\r\n        uint256 _end\r\n    );\r\n    event AddAuthWithLevelEvent(\r\n        string oid,\r\n        bytes32[] target,\r\n        uint256[] level,\r\n        uint256 _start,\r\n        uint256 _end\r\n    );\r\n    event AskAuthEvent(\r\n        string indexed id,\r\n        bytes32 indexed sourceKey,\r\n        string oid,\r\n        uint256 role,\r\n        uint256 level1,\r\n        uint256 level2,\r\n        uint256 time\r\n    );\r\n    event SetRegistryContractEvent(address _registryContract);\r\n    event TransferOwnerEvent(address newOwner);\r\n    event TransferEBMEvent(address newEBM);\r\n    event TransferUserEvent(address newUser);\r\n\r\n    modifier onlyOwner() {\r\n        require(msg.sender == owner);\r\n        _;\r\n    }\r\n\r\n    modifier onlyEBM() {\r\n        require(msg.sender == EBM);\r\n        _;\r\n    }\r\n\r\n    modifier onlyUser() {\r\n        require(msg.sender == user);\r\n        _;\r\n    }\r\n\r\n    modifier onlyRegistryContract() {\r\n        require(msg.sender == registryContract);\r\n        _;\r\n    }\r\n\r\n    //  owner, user, uid, registryContract, EBM address\r\n    constructor(\r\n        address _owner,\r\n        address _user,\r\n        string memory _uid,\r\n        address _registryContract,\r\n        address _EBM\r\n    ) public {\r\n        owner = _owner;\r\n        user = _user;\r\n        uid = _uid;\r\n        registryContract = _registryContract;\r\n        EBM = _EBM;\r\n    }\r\n\r\n    //  sourceKey (sourceKey)\r\n    function addAuthWithSourceKey(\r\n        string memory oid,\r\n        bytes32[] memory target,\r\n        bytes32[] memory sourceKey,\r\n        uint256 _start,\r\n        uint256 _end\r\n    ) public onlyUser {\r\n        for (uint256 i = 0; i < target.length; i++) {\r\n            for (uint256 j = 0; j < sourceKey.length; j++) {\r\n                require(_start <= _end);\r\n                sStart[oid][target[i]][sourceKey[j]] = _start;\r\n                sEnd[oid][target[i]][sourceKey[j]] = _end;\r\n            }\r\n        }\r\n        emit AddAuthWithSourceKeyEvent(oid, target, sourceKey, _start, _end);\r\n    }\r\n\r\n    //   ()\r\n    function addAuthWithLevel(\r\n        string memory oid,\r\n        bytes32[] memory target,\r\n        uint256[] memory level,\r\n        uint256 _start,\r\n        uint256 _end\r\n    ) public onlyUser {\r\n        for (uint256 i = 0; i < target.length; i++) {\r\n            for (uint256 j = 0; j < level.length; j++) {\r\n                require(_start <= _end);\r\n                lStart[oid][target[i]][level[j]] = _start;\r\n                lEnd[oid][target[i]][level[j]] = _end;\r\n            }\r\n        }\r\n        emit AddAuthWithLevelEvent(oid, target, level, _start, _end);\r\n    }\r\n\r\n    //   ()()\r\n    function updateAuthWithLevel(\r\n        string memory old_oid,\r\n        bytes32[] memory old_target,\r\n        uint256[] memory old_level,\r\n        uint256 _old_start,\r\n        uint256 _old_end,\r\n        string memory oid,\r\n        bytes32[] memory target,\r\n        uint256[] memory level,\r\n        uint256 _start,\r\n        uint256 _end\r\n    ) public onlyUser {\r\n        for (uint256 i = 0; i < old_target.length; i++) {\r\n            for (uint256 j = 0; j < old_level.length; j++) {\r\n                lStart[old_oid][old_target[i]][old_level[j]] = _old_start;\r\n                lEnd[old_oid][old_target[i]][old_level[j]] = _old_end;\r\n            }\r\n        }\r\n        for (uint256 i = 0; i < target.length; i++) {\r\n            for (uint256 j = 0; j < level.length; j++) {\r\n                require(_start <= _end);\r\n                lStart[oid][target[i]][level[j]] = _start;\r\n                lEnd[oid][target[i]][level[j]] = _end;\r\n            }\r\n        }\r\n    }\r\n\r\n    // (idLevel1Level2sourceKey)\r\n    function RecordOfAskAuth(\r\n        string memory oid,\r\n        uint256 role,\r\n        string memory id,\r\n        uint256 level1,\r\n        uint256 level2,\r\n        bytes32 sourceKey,\r\n        uint256 _now\r\n    ) public onlyOwner {\r\n        emit AskAuthEvent(id, sourceKey, oid, role, level1, level2, _now);\r\n    }\r\n\r\n    // (idlevel1level2sourceKey)\r\n    function isAuth(\r\n        string memory oid,\r\n        bytes32 target,\r\n        uint256 level1,\r\n        uint256 level2,\r\n        bytes32 sourceKey,\r\n        uint256 time\r\n    ) public view onlyOwner returns (bool) {\r\n        return\r\n            (time >= lStart[oid][target][0] && time <= lEnd[oid][target][0]) ||\r\n            (time >= lStart[oid][target][level1] &&\r\n                time <= lEnd[oid][target][level1]) ||\r\n            (time >= lStart[oid][target][level2] &&\r\n                time <= lEnd[oid][target][level2]) ||\r\n            (time >= sStart[oid][target][sourceKey] &&\r\n                time <= sEnd[oid][target][sourceKey]);\r\n    }\r\n\r\n    // (sourceKey)\r\n    function getAuthTimeWithSourceKey(\r\n        string memory oid,\r\n        bytes32 target,\r\n        bytes32 sourceKey\r\n    ) public view onlyUser returns (uint256, uint256) {\r\n        return (sStart[oid][target][sourceKey], sEnd[oid][target][sourceKey]);\r\n    }\r\n\r\n    // (sourceKey)\r\n    function getAuthTimeWithLevel(\r\n        string memory oid,\r\n        bytes32 target,\r\n        uint256 level\r\n    ) public view onlyUser returns (uint256, uint256) {\r\n        return (lStart[oid][target][level], lEnd[oid][target][level]);\r\n    }\r\n\r\n    // Owner\r\n    function transferOwner(address newOwner) public onlyOwner {\r\n        owner = newOwner;\r\n        emit TransferOwnerEvent(newOwner);\r\n    }\r\n\r\n    // EBM address\r\n    function transferEBM(address newEBM) public onlyOwner {\r\n        EBM = newEBM;\r\n        emit TransferEBMEvent(newEBM);\r\n    }\r\n\r\n    // UserRedistryContract setEthAddr  function\r\n    function transferUser(address newUser) public onlyRegistryContract {\r\n        user = newUser;\r\n        emit TransferUserEvent(newUser);\r\n    }\r\n\r\n    // \r\n    function transferRegistryContract(address newRegistryContract)\r\n        public\r\n        onlyOwner\r\n    {\r\n        registryContract = newRegistryContract;\r\n        emit SetRegistryContractEvent(newRegistryContract);\r\n    }\r\n}\r\n",
  "sourcePath": "/Users/roy105703007/Desktop/NTU/contracts/CareRecordConsent.sol",
  "compiler": {
    "name": "solc",
    "version": "0.5.16+commit.9c3226ce.Emscripten.clang"
  },
  "schemaVersion": "3.0.23",
  "updatedAt": "2020-03-30T11:27:04.165Z",
  "devdoc": {
    "methods": {}
  },
  "userdoc": {
    "methods": {}
  }
}