{
  "contractName": "RegistryContract",
  "abi": [
    {
      "inputs": [],
      "payable": false,
      "stateMutability": "nonpayable",
      "type": "constructor"
    },
    {
      "anonymous": false,
      "inputs": [
        {
          "indexed": false,
          "internalType": "string",
          "name": "u_id",
          "type": "string"
        },
        {
          "indexed": false,
          "internalType": "uint256",
          "name": "accountStatus",
          "type": "uint256"
        },
        {
          "indexed": false,
          "internalType": "uint256",
          "name": "now",
          "type": "uint256"
        }
      ],
      "name": "changeAccountStatus",
      "type": "event"
    },
    {
      "anonymous": false,
      "inputs": [
        {
          "indexed": false,
          "internalType": "string",
          "name": "u_id",
          "type": "string"
        },
        {
          "indexed": false,
          "internalType": "address",
          "name": "CareRecordConsentAddr",
          "type": "address"
        },
        {
          "indexed": false,
          "internalType": "uint256",
          "name": "now",
          "type": "uint256"
        }
      ],
      "name": "changeCareRecordConsentAddr",
      "type": "event"
    },
    {
      "anonymous": false,
      "inputs": [
        {
          "indexed": false,
          "internalType": "string",
          "name": "u_id",
          "type": "string"
        },
        {
          "indexed": false,
          "internalType": "address",
          "name": "CareRecordConsentAddr",
          "type": "address"
        },
        {
          "indexed": false,
          "internalType": "address",
          "name": "etherAddr",
          "type": "address"
        },
        {
          "indexed": false,
          "internalType": "uint256",
          "name": "accountStatus",
          "type": "uint256"
        },
        {
          "indexed": false,
          "internalType": "uint256",
          "name": "now",
          "type": "uint256"
        }
      ],
      "name": "changeEthAddr",
      "type": "event"
    },
    {
      "anonymous": false,
      "inputs": [
        {
          "indexed": false,
          "internalType": "string",
          "name": "u_id",
          "type": "string"
        },
        {
          "indexed": false,
          "internalType": "address",
          "name": "NewWitnessAddr",
          "type": "address"
        },
        {
          "indexed": false,
          "internalType": "uint256",
          "name": "now",
          "type": "uint256"
        }
      ],
      "name": "changeWitness",
      "type": "event"
    },
    {
      "anonymous": false,
      "inputs": [
        {
          "indexed": false,
          "internalType": "address",
          "name": "witnessAddr",
          "type": "address"
        },
        {
          "indexed": false,
          "internalType": "bool",
          "name": "oldIsWitnesses",
          "type": "bool"
        },
        {
          "indexed": false,
          "internalType": "bool",
          "name": "NewIsWitnesses",
          "type": "bool"
        },
        {
          "indexed": false,
          "internalType": "uint256",
          "name": "now",
          "type": "uint256"
        }
      ],
      "name": "manageWitness",
      "type": "event"
    },
    {
      "anonymous": false,
      "inputs": [
        {
          "indexed": false,
          "internalType": "string",
          "name": "u_id",
          "type": "string"
        },
        {
          "indexed": false,
          "internalType": "address",
          "name": "etherAddr",
          "type": "address"
        },
        {
          "indexed": false,
          "internalType": "address",
          "name": "_witnessAddr",
          "type": "address"
        },
        {
          "indexed": false,
          "internalType": "address",
          "name": "CareRecordConsentAddr",
          "type": "address"
        },
        {
          "indexed": false,
          "internalType": "uint256",
          "name": "now",
          "type": "uint256"
        }
      ],
      "name": "setNewUser",
      "type": "event"
    },
    {
      "constant": true,
      "inputs": [],
      "name": "owner",
      "outputs": [
        {
          "internalType": "address",
          "name": "",
          "type": "address"
        }
      ],
      "payable": false,
      "stateMutability": "view",
      "type": "function"
    },
    {
      "constant": true,
      "inputs": [],
      "name": "getOwner",
      "outputs": [
        {
          "internalType": "address",
          "name": "",
          "type": "address"
        }
      ],
      "payable": false,
      "stateMutability": "view",
      "type": "function"
    },
    {
      "constant": false,
      "inputs": [
        {
          "internalType": "string",
          "name": "_u_id",
          "type": "string"
        },
        {
          "internalType": "address",
          "name": "_etherAddr",
          "type": "address"
        },
        {
          "internalType": "address",
          "name": "_witnessAddr",
          "type": "address"
        }
      ],
      "name": "registerUser",
      "outputs": [],
      "payable": false,
      "stateMutability": "nonpayable",
      "type": "function"
    },
    {
      "constant": false,
      "inputs": [
        {
          "internalType": "string",
          "name": "_u_id",
          "type": "string"
        },
        {
          "internalType": "address",
          "name": "_etherAddr",
          "type": "address"
        },
        {
          "internalType": "uint256",
          "name": "accountStatus",
          "type": "uint256"
        },
        {
          "internalType": "address",
          "name": "_witnessAddr",
          "type": "address"
        },
        {
          "internalType": "address",
          "name": "_careRecordConsentAddr",
          "type": "address"
        },
        {
          "internalType": "uint256",
          "name": "time",
          "type": "uint256"
        }
      ],
      "name": "setOldUser",
      "outputs": [],
      "payable": false,
      "stateMutability": "nonpayable",
      "type": "function"
    },
    {
      "constant": false,
      "inputs": [
        {
          "internalType": "string",
          "name": "_u_id",
          "type": "string"
        },
        {
          "internalType": "address",
          "name": "_NewWitnessAddr",
          "type": "address"
        }
      ],
      "name": "setWitness",
      "outputs": [],
      "payable": false,
      "stateMutability": "nonpayable",
      "type": "function"
    },
    {
      "constant": false,
      "inputs": [
        {
          "internalType": "string",
          "name": "_u_id",
          "type": "string"
        },
        {
          "internalType": "address",
          "name": "_CareRecordConsentAddr",
          "type": "address"
        }
      ],
      "name": "setCareRecordConsentAddr",
      "outputs": [],
      "payable": false,
      "stateMutability": "nonpayable",
      "type": "function"
    },
    {
      "constant": false,
      "inputs": [
        {
          "internalType": "string",
          "name": "_u_id",
          "type": "string"
        },
        {
          "internalType": "uint256",
          "name": "_accountStatus",
          "type": "uint256"
        }
      ],
      "name": "setAccountStatus",
      "outputs": [],
      "payable": false,
      "stateMutability": "nonpayable",
      "type": "function"
    },
    {
      "constant": false,
      "inputs": [
        {
          "internalType": "string",
          "name": "_u_id",
          "type": "string"
        },
        {
          "internalType": "address",
          "name": "_newEtherAddr",
          "type": "address"
        }
      ],
      "name": "setEthAddr",
      "outputs": [],
      "payable": false,
      "stateMutability": "nonpayable",
      "type": "function"
    },
    {
      "constant": false,
      "inputs": [
        {
          "internalType": "address",
          "name": "_witnessAddr",
          "type": "address"
        }
      ],
      "name": "addWitness",
      "outputs": [],
      "payable": false,
      "stateMutability": "nonpayable",
      "type": "function"
    },
    {
      "constant": false,
      "inputs": [
        {
          "internalType": "address",
          "name": "_witnessAddr",
          "type": "address"
        }
      ],
      "name": "deleteWitness",
      "outputs": [],
      "payable": false,
      "stateMutability": "nonpayable",
      "type": "function"
    },
    {
      "constant": true,
      "inputs": [],
      "name": "getUserCount",
      "outputs": [
        {
          "internalType": "uint256",
          "name": "userCount",
          "type": "uint256"
        }
      ],
      "payable": false,
      "stateMutability": "view",
      "type": "function"
    },
    {
      "constant": true,
      "inputs": [
        {
          "internalType": "string",
          "name": "_u_id",
          "type": "string"
        }
      ],
      "name": "getUserInfo",
      "outputs": [
        {
          "internalType": "string",
          "name": "u_id",
          "type": "string"
        },
        {
          "internalType": "address",
          "name": "CareRecordConsentAddr",
          "type": "address"
        },
        {
          "internalType": "address",
          "name": "etherAddr",
          "type": "address"
        },
        {
          "internalType": "uint256",
          "name": "accountStatus",
          "type": "uint256"
        }
      ],
      "payable": false,
      "stateMutability": "view",
      "type": "function"
    },
    {
      "constant": true,
      "inputs": [],
      "name": "getWitnesses",
      "outputs": [
        {
          "internalType": "address[]",
          "name": "",
          "type": "address[]"
        }
      ],
      "payable": false,
      "stateMutability": "view",
      "type": "function"
    }
  ],
  "bytecode": "0x608060405234801561001057600080fd5b50336000806101000a81548173ffffffffffffffffffffffffffffffffffffffff021916908373ffffffffffffffffffffffffffffffffffffffff160217905550615539806100606000396000f3fe60806040523480156200001157600080fd5b5060043610620000e25760003560e01c80638da5cb5b1162000099578063a80ba7bf116200006f578063a80ba7bf14620006dd578063b5cb15f714620007be578063b91fddf314620007de578063fb14f771146200091357620000e2565b80638da5cb5b146200054d57806396d195bd14620005995780639f9b2da914620005fc57620000e2565b80634b512eaa14620000e757806359e26be114620001e85780635a14b678146200022f5780637c9b7fdd14620003105780638441f89e14620004ba578063893d20e81462000501575b600080fd5b620001e660048036036060811015620000ff57600080fd5b81019080803590602001906401000000008111156200011d57600080fd5b8201836020820111156200013057600080fd5b803590602001918460018302840111640100000000831117156200015357600080fd5b91908080601f016020809104026020016040519081016040528093929190818152602001838380828437600081840152601f19601f820116905080830192505050505050509192919290803573ffffffffffffffffffffffffffffffffffffffff169060200190929190803573ffffffffffffffffffffffffffffffffffffffff169060200190929190505050620009de565b005b6200022d600480360360208110156200020057600080fd5b81019080803573ffffffffffffffffffffffffffffffffffffffff169060200190929190505050620011c4565b005b6200030e600480360360408110156200024757600080fd5b81019080803590602001906401000000008111156200026557600080fd5b8201836020820111156200027857600080fd5b803590602001918460018302840111640100000000831117156200029b57600080fd5b91908080601f016020809104026020016040519081016040528093929190818152602001838380828437600081840152601f19601f820116905080830192505050505050509192919290803573ffffffffffffffffffffffffffffffffffffffff169060200190929190505050620014c1565b005b620003cf600480360360208110156200032857600080fd5b81019080803590602001906401000000008111156200034657600080fd5b8201836020820111156200035957600080fd5b803590602001918460018302840111640100000000831117156200037c57600080fd5b91908080601f016020809104026020016040519081016040528093929190818152602001838380828437600081840152601f19601f82011690508083019250505050505050919291929050505062001723565b60405180806020018573ffffffffffffffffffffffffffffffffffffffff1673ffffffffffffffffffffffffffffffffffffffff1681526020018473ffffffffffffffffffffffffffffffffffffffff1673ffffffffffffffffffffffffffffffffffffffff168152602001838152602001828103825286818151815260200191508051906020019080838360005b838110156200047b5780820151818401526020810190506200045e565b50505050905090810190601f168015620004a95780820380516001836020036101000a031916815260200191505b509550505050505060405180910390f35b620004ff60048036036020811015620004d257600080fd5b81019080803573ffffffffffffffffffffffffffffffffffffffff16906020019092919050505062001a2e565b005b6200050b62001e0a565b604051808273ffffffffffffffffffffffffffffffffffffffff1673ffffffffffffffffffffffffffffffffffffffff16815260200191505060405180910390f35b6200055762001e33565b604051808273ffffffffffffffffffffffffffffffffffffffff1673ffffffffffffffffffffffffffffffffffffffff16815260200191505060405180910390f35b620005a362001e58565b6040518080602001828103825283818151815260200191508051906020019060200280838360005b83811015620005e8578082015181840152602081019050620005cb565b505050509050019250505060405180910390f35b620006db600480360360408110156200061457600080fd5b81019080803590602001906401000000008111156200063257600080fd5b8201836020820111156200064557600080fd5b803590602001918460018302840111640100000000831117156200066857600080fd5b91908080601f016020809104026020016040519081016040528093929190818152602001838380828437600081840152601f19601f820116905080830192505050505050509192919290803573ffffffffffffffffffffffffffffffffffffffff16906020019092919050505062001ee8565b005b620007bc60048036036040811015620006f557600080fd5b81019080803590602001906401000000008111156200071357600080fd5b8201836020820111156200072657600080fd5b803590602001918460018302840111640100000000831117156200074957600080fd5b91908080601f016020809104026020016040519081016040528093929190818152602001838380828437600081840152601f19601f820116905080830192505050505050509192919290803573ffffffffffffffffffffffffffffffffffffffff169060200190929190505050620023b5565b005b620007c862002616565b6040518082815260200191505060405180910390f35b62000911600480360360c0811015620007f657600080fd5b81019080803590602001906401000000008111156200081457600080fd5b8201836020820111156200082757600080fd5b803590602001918460018302840111640100000000831117156200084a57600080fd5b91908080601f016020809104026020016040519081016040528093929190818152602001838380828437600081840152601f19601f820116905080830192505050505050509192919290803573ffffffffffffffffffffffffffffffffffffffff16906020019092919080359060200190929190803573ffffffffffffffffffffffffffffffffffffffff169060200190929190803573ffffffffffffffffffffffffffffffffffffffff1690602001909291908035906020019092919050505062002623565b005b620009dc600480360360408110156200092b57600080fd5b81019080803590602001906401000000008111156200094957600080fd5b8201836020820111156200095c57600080fd5b803590602001918460018302840111640100000000831117156200097f57600080fd5b91908080601f016020809104026020016040519081016040528093929190818152602001838380828437600081840152601f19601f8201169050808301925050505050505091929192908035906020019092919050505062002b98565b005b600260003373ffffffffffffffffffffffffffffffffffffffff1673ffffffffffffffffffffffffffffffffffffffff16815260200190815260200160002060009054906101000a900460ff1662000a3557600080fd5b8073ffffffffffffffffffffffffffffffffffffffff163373ffffffffffffffffffffffffffffffffffffffff161462000a6e57600080fd5b60006001846040518082805190602001908083835b6020831062000aa8578051825260208201915060208101905060208303925062000a83565b6001836020036101000a03801982511681845116808217855250505050505090500191505090815260200160405180910390206000018054600181600116156101000203166002900490501462000afe57600080fd5b826001846040518082805190602001908083835b6020831062000b37578051825260208201915060208101905060208303925062000b12565b6001836020036101000a0380198251168184511680821785525050505050509050019150509081526020016040518091039020600001908051906020019062000b8292919062002d18565b50816001846040518082805190602001908083835b6020831062000bbc578051825260208201915060208101905060208303925062000b97565b6001836020036101000a038019825116818451168082178552505050505050905001915050908152602001604051809103902060020160006101000a81548173ffffffffffffffffffffffffffffffffffffffff021916908373ffffffffffffffffffffffffffffffffffffffff160217905550600180846040518082805190602001908083835b6020831062000c69578051825260208201915060208101905060208303925062000c44565b6001836020036101000a038019825116818451168082178552505050505050905001915050908152602001604051809103902060040181905550806001846040518082805190602001908083835b6020831062000cdc578051825260208201915060208101905060208303925062000cb7565b6001836020036101000a038019825116818451168082178552505050505050905001915050908152602001604051809103902060030160006101000a81548173ffffffffffffffffffffffffffffffffffffffff021916908373ffffffffffffffffffffffffffffffffffffffff1602179055506000809054906101000a900473ffffffffffffffffffffffffffffffffffffffff168284306000809054906101000a900473ffffffffffffffffffffffffffffffffffffffff1660405162000da59062002d9f565b808673ffffffffffffffffffffffffffffffffffffffff1673ffffffffffffffffffffffffffffffffffffffff1681526020018573ffffffffffffffffffffffffffffffffffffffff1673ffffffffffffffffffffffffffffffffffffffff168152602001806020018473ffffffffffffffffffffffffffffffffffffffff1673ffffffffffffffffffffffffffffffffffffffff1681526020018373ffffffffffffffffffffffffffffffffffffffff1673ffffffffffffffffffffffffffffffffffffffff168152602001828103825285818151815260200191508051906020019080838360005b8381101562000eac57808201518184015260208101905062000e8f565b50505050905090810190601f16801562000eda5780820380516001836020036101000a031916815260200191505b509650505050505050604051809103906000f08015801562000f00573d6000803e3d6000fd5b506001846040518082805190602001908083835b6020831062000f39578051825260208201915060208101905060208303925062000f14565b6001836020036101000a038019825116818451168082178552505050505050905001915050908152602001604051809103902060010160006101000a81548173ffffffffffffffffffffffffffffffffffffffff021916908373ffffffffffffffffffffffffffffffffffffffff160217905550600383908060018154018082558091505090600182039060005260206000200160009091929091909150908051906020019062000fec92919062002d18565b50507f2ddb3daa6644b85267bdaf4ffe67a38764d270630858985cf63ea29cb8782cd88383836001876040518082805190602001908083835b602083106200104a578051825260208201915060208101905060208303925062001025565b6001836020036101000a038019825116818451168082178552505050505050905001915050908152602001604051809103902060010160009054906101000a900473ffffffffffffffffffffffffffffffffffffffff164260405180806020018673ffffffffffffffffffffffffffffffffffffffff1673ffffffffffffffffffffffffffffffffffffffff1681526020018573ffffffffffffffffffffffffffffffffffffffff1673ffffffffffffffffffffffffffffffffffffffff1681526020018473ffffffffffffffffffffffffffffffffffffffff1673ffffffffffffffffffffffffffffffffffffffff168152602001838152602001828103825287818151815260200191508051906020019080838360005b838110156200118057808201518184015260208101905062001163565b50505050905090810190601f168015620011ae5780820380516001836020036101000a031916815260200191505b50965050505050505060405180910390a1505050565b6000809054906101000a900473ffffffffffffffffffffffffffffffffffffffff1673ffffffffffffffffffffffffffffffffffffffff163373ffffffffffffffffffffffffffffffffffffffff16146200121e57600080fd5b600260008273ffffffffffffffffffffffffffffffffffffffff1673ffffffffffffffffffffffffffffffffffffffff16815260200190815260200160002060009054906101000a900460ff1615620012df576040517f08c379a000000000000000000000000000000000000000000000000000000000815260040180806020018281038252601c8152602001807f746865207769746e65737320697320616c72656164792065786973740000000081525060200191505060405180910390fd5b6000600260008373ffffffffffffffffffffffffffffffffffffffff1673ffffffffffffffffffffffffffffffffffffffff16815260200190815260200160002060009054906101000a900460ff1690506001600260008473ffffffffffffffffffffffffffffffffffffffff1673ffffffffffffffffffffffffffffffffffffffff16815260200190815260200160002060006101000a81548160ff02191690831515021790555060048290806001815401808255809150509060018203906000526020600020016000909192909190916101000a81548173ffffffffffffffffffffffffffffffffffffffff021916908373ffffffffffffffffffffffffffffffffffffffff160217905550507f62dfeceb735d175bbcdb97d43b7ee092b4731c2dc3aa7c768d2b32520c6137688282600260008673ffffffffffffffffffffffffffffffffffffffff1673ffffffffffffffffffffffffffffffffffffffff16815260200190815260200160002060009054906101000a900460ff1642604051808573ffffffffffffffffffffffffffffffffffffffff1673ffffffffffffffffffffffffffffffffffffffff168152602001841515151581526020018315151515815260200182815260200194505050505060405180910390a15050565b6000809054906101000a900473ffffffffffffffffffffffffffffffffffffffff1673ffffffffffffffffffffffffffffffffffffffff163373ffffffffffffffffffffffffffffffffffffffff16146200151b57600080fd5b60006001836040518082805190602001908083835b6020831062001555578051825260208201915060208101905060208303925062001530565b6001836020036101000a038019825116818451168082178552505050505050905001915050908152602001604051809103902060040154146200159757600080fd5b806001836040518082805190602001908083835b60208310620015d05780518252602082019150602081019050602083039250620015ab565b6001836020036101000a038019825116818451168082178552505050505050905001915050908152602001604051809103902060030160006101000a81548173ffffffffffffffffffffffffffffffffffffffff021916908373ffffffffffffffffffffffffffffffffffffffff1602179055507f6126b67e3a0d74a6e0bbbd124027b79ba32619adc9f30516fa4aa4169a08084882824260405180806020018473ffffffffffffffffffffffffffffffffffffffff1673ffffffffffffffffffffffffffffffffffffffff168152602001838152602001828103825285818151815260200191508051906020019080838360005b83811015620016e2578082015181840152602081019050620016c5565b50505050905090810190601f168015620017105780820380516001836020036101000a031916815260200191505b5094505050505060405180910390a15050565b606060008060008060009054906101000a900473ffffffffffffffffffffffffffffffffffffffff1673ffffffffffffffffffffffffffffffffffffffff163373ffffffffffffffffffffffffffffffffffffffff16146200178457600080fd5b6001856040518082805190602001908083835b60208310620017bc578051825260208201915060208101905060208303925062001797565b6001836020036101000a03801982511681845116808217855250505050505090500191505090815260200160405180910390206000016001866040518082805190602001908083835b602083106200182a578051825260208201915060208101905060208303925062001805565b6001836020036101000a038019825116818451168082178552505050505050905001915050908152602001604051809103902060010160009054906101000a900473ffffffffffffffffffffffffffffffffffffffff166001876040518082805190602001908083835b60208310620018b9578051825260208201915060208101905060208303925062001894565b6001836020036101000a038019825116818451168082178552505050505050905001915050908152602001604051809103902060020160009054906101000a900473ffffffffffffffffffffffffffffffffffffffff166001886040518082805190602001908083835b6020831062001948578051825260208201915060208101905060208303925062001923565b6001836020036101000a038019825116818451168082178552505050505050905001915050908152602001604051809103902060040154838054600181600116156101000203166002900480601f01602080910402602001604051908101604052809291908181526020018280546001816001161561010002031660029004801562001a185780601f10620019ec5761010080835404028352916020019162001a18565b820191906000526020600020905b815481529060010190602001808311620019fa57829003601f168201915b5050505050935093509350935093509193509193565b6000809054906101000a900473ffffffffffffffffffffffffffffffffffffffff1673ffffffffffffffffffffffffffffffffffffffff163373ffffffffffffffffffffffffffffffffffffffff161462001a8857600080fd5b600260008273ffffffffffffffffffffffffffffffffffffffff1673ffffffffffffffffffffffffffffffffffffffff16815260200190815260200160002060009054906101000a900460ff1662001b48576040517f08c379a00000000000000000000000000000000000000000000000000000000081526004018080602001828103825260188152602001807f746865207769746e657373206973206e6f74206578697374000000000000000081525060200191505060405180910390fd5b6000600260008373ffffffffffffffffffffffffffffffffffffffff1673ffffffffffffffffffffffffffffffffffffffff16815260200190815260200160002060009054906101000a900460ff1690506000600260008473ffffffffffffffffffffffffffffffffffffffff1673ffffffffffffffffffffffffffffffffffffffff16815260200190815260200160002060006101000a81548160ff0219169083151502179055506000600480549050905060008090505b8181101562001d35578373ffffffffffffffffffffffffffffffffffffffff166004828154811062001c2f57fe5b9060005260206000200160009054906101000a900473ffffffffffffffffffffffffffffffffffffffff1673ffffffffffffffffffffffffffffffffffffffff16141562001d27576004600183038154811062001c8857fe5b9060005260206000200160009054906101000a900473ffffffffffffffffffffffffffffffffffffffff166004828154811062001cc157fe5b9060005260206000200160006101000a81548173ffffffffffffffffffffffffffffffffffffffff021916908373ffffffffffffffffffffffffffffffffffffffff160217905550600480548091906001900362001d20919062002dad565b5062001d35565b808060010191505062001c01565b507f62dfeceb735d175bbcdb97d43b7ee092b4731c2dc3aa7c768d2b32520c6137688383600260008773ffffffffffffffffffffffffffffffffffffffff1673ffffffffffffffffffffffffffffffffffffffff16815260200190815260200160002060009054906101000a900460ff1642604051808573ffffffffffffffffffffffffffffffffffffffff1673ffffffffffffffffffffffffffffffffffffffff168152602001841515151581526020018315151515815260200182815260200194505050505060405180910390a1505050565b60008060009054906101000a900473ffffffffffffffffffffffffffffffffffffffff16905090565b6000809054906101000a900473ffffffffffffffffffffffffffffffffffffffff1681565b6060600480548060200260200160405190810160405280929190818152602001828054801562001ede57602002820191906000526020600020905b8160009054906101000a900473ffffffffffffffffffffffffffffffffffffffff1673ffffffffffffffffffffffffffffffffffffffff168152602001906001019080831162001e93575b5050505050905090565b600260003373ffffffffffffffffffffffffffffffffffffffff1673ffffffffffffffffffffffffffffffffffffffff16815260200190815260200160002060009054906101000a900460ff1662001f3f57600080fd5b806001836040518082805190602001908083835b6020831062001f78578051825260208201915060208101905060208303925062001f53565b6001836020036101000a038019825116818451168082178552505050505050905001915050908152602001604051809103902060020160006101000a81548173ffffffffffffffffffffffffffffffffffffffff021916908373ffffffffffffffffffffffffffffffffffffffff1602179055506001826040518082805190602001908083835b6020831062002024578051825260208201915060208101905060208303925062001fff565b6001836020036101000a038019825116818451168082178552505050505050905001915050908152602001604051809103902060010160009054906101000a900473ffffffffffffffffffffffffffffffffffffffff1673ffffffffffffffffffffffffffffffffffffffff1663a2522b4d826040518263ffffffff1660e01b8152600401808273ffffffffffffffffffffffffffffffffffffffff1673ffffffffffffffffffffffffffffffffffffffff168152602001915050600060405180830381600087803b158015620020fa57600080fd5b505af11580156200210f573d6000803e3d6000fd5b505050507f35fa0fb579d9fe2fdbb1c610b20681cc96610e2c6b1710acc5f9bc9bf7d5edc76001836040518082805190602001908083835b602083106200216c578051825260208201915060208101905060208303925062002147565b6001836020036101000a03801982511681845116808217855250505050505090500191505090815260200160405180910390206000016001846040518082805190602001908083835b60208310620021da5780518252602082019150602081019050602083039250620021b5565b6001836020036101000a038019825116818451168082178552505050505050905001915050908152602001604051809103902060010160009054906101000a900473ffffffffffffffffffffffffffffffffffffffff16836001866040518082805190602001908083835b602083106200226a578051825260208201915060208101905060208303925062002245565b6001836020036101000a0380198251168184511680821785525050505050509050019150509081526020016040518091039020600401544260405180806020018673ffffffffffffffffffffffffffffffffffffffff1673ffffffffffffffffffffffffffffffffffffffff1681526020018573ffffffffffffffffffffffffffffffffffffffff1673ffffffffffffffffffffffffffffffffffffffff1681526020018481526020018381526020018281038252878181546001816001161561010002031660029004815260200191508054600181600116156101000203166002900480156200239f5780601f1062002373576101008083540402835291602001916200239f565b820191906000526020600020905b8154815290600101906020018083116200238157829003601f168201915b5050965050505050505060405180910390a15050565b6000809054906101000a900473ffffffffffffffffffffffffffffffffffffffff1673ffffffffffffffffffffffffffffffffffffffff163373ffffffffffffffffffffffffffffffffffffffff16146200240f57600080fd5b600180836040518082805190602001908083835b6020831062002448578051825260208201915060208101905060208303925062002423565b6001836020036101000a038019825116818451168082178552505050505050905001915050908152602001604051809103902060040154146200248a57600080fd5b806001836040518082805190602001908083835b60208310620024c357805182526020820191506020810190506020830392506200249e565b6001836020036101000a038019825116818451168082178552505050505050905001915050908152602001604051809103902060010160006101000a81548173ffffffffffffffffffffffffffffffffffffffff021916908373ffffffffffffffffffffffffffffffffffffffff1602179055507f81aeb064701b0549f79aa40869f49b5701e5558a80cfca5a99a5e038b983537482824260405180806020018473ffffffffffffffffffffffffffffffffffffffff1673ffffffffffffffffffffffffffffffffffffffff168152602001838152602001828103825285818151815260200191508051906020019080838360005b83811015620025d5578082015181840152602081019050620025b8565b50505050905090810190601f168015620026035780820380516001836020036101000a031916815260200191505b5094505050505060405180910390a15050565b6000600380549050905090565b6000809054906101000a900473ffffffffffffffffffffffffffffffffffffffff1673ffffffffffffffffffffffffffffffffffffffff163373ffffffffffffffffffffffffffffffffffffffff16146200267d57600080fd5b60006001876040518082805190602001908083835b60208310620026b7578051825260208201915060208101905060208303925062002692565b6001836020036101000a0380198251168184511680821785525050505050509050019150509081526020016040518091039020600001805460018160011615610100020316600290049050146200270d57600080fd5b856001876040518082805190602001908083835b6020831062002746578051825260208201915060208101905060208303925062002721565b6001836020036101000a038019825116818451168082178552505050505050905001915050908152602001604051809103902060000190805190602001906200279192919062002d18565b50846001876040518082805190602001908083835b60208310620027cb5780518252602082019150602081019050602083039250620027a6565b6001836020036101000a038019825116818451168082178552505050505050905001915050908152602001604051809103902060020160006101000a81548173ffffffffffffffffffffffffffffffffffffffff021916908373ffffffffffffffffffffffffffffffffffffffff160217905550836001876040518082805190602001908083835b6020831062002878578051825260208201915060208101905060208303925062002853565b6001836020036101000a038019825116818451168082178552505050505050905001915050908152602001604051809103902060040181905550826001876040518082805190602001908083835b60208310620028eb5780518252602082019150602081019050602083039250620028c6565b6001836020036101000a038019825116818451168082178552505050505050905001915050908152602001604051809103902060030160006101000a81548173ffffffffffffffffffffffffffffffffffffffff021916908373ffffffffffffffffffffffffffffffffffffffff160217905550816001876040518082805190602001908083835b6020831062002998578051825260208201915060208101905060208303925062002973565b6001836020036101000a038019825116818451168082178552505050505050905001915050908152602001604051809103902060010160006101000a81548173ffffffffffffffffffffffffffffffffffffffff021916908373ffffffffffffffffffffffffffffffffffffffff160217905550600386908060018154018082558091505090600182039060005260206000200160009091929091909150908051906020019062002a4b92919062002d18565b50507f2ddb3daa6644b85267bdaf4ffe67a38764d270630858985cf63ea29cb8782cd8868685858560405180806020018673ffffffffffffffffffffffffffffffffffffffff1673ffffffffffffffffffffffffffffffffffffffff1681526020018573ffffffffffffffffffffffffffffffffffffffff1673ffffffffffffffffffffffffffffffffffffffff1681526020018473ffffffffffffffffffffffffffffffffffffffff1673ffffffffffffffffffffffffffffffffffffffff168152602001838152602001828103825287818151815260200191508051906020019080838360005b8381101562002b5157808201518184015260208101905062002b34565b50505050905090810190601f16801562002b7f5780820380516001836020036101000a031916815260200191505b50965050505050505060405180910390a1505050505050565b6000809054906101000a900473ffffffffffffffffffffffffffffffffffffffff1673ffffffffffffffffffffffffffffffffffffffff163373ffffffffffffffffffffffffffffffffffffffff161462002bf257600080fd5b806001836040518082805190602001908083835b6020831062002c2b578051825260208201915060208101905060208303925062002c06565b6001836020036101000a0380198251168184511680821785525050505050509050019150509081526020016040518091039020600401819055507fd4343f934dbf8ce5a9303988359494dbf11ff76e9c85ee73b878a09b4cb60c868282426040518080602001848152602001838152602001828103825285818151815260200191508051906020019080838360005b8381101562002cd757808201518184015260208101905062002cba565b50505050905090810190601f16801562002d055780820380516001836020036101000a031916815260200191505b5094505050505060405180910390a15050565b828054600181600116156101000203166002900490600052602060002090601f016020900481019282601f1062002d5b57805160ff191683800117855562002d8c565b8280016001018555821562002d8c579182015b8281111562002d8b57825182559160200191906001019062002d6e565b5b50905062002d9b919062002ddc565b5090565b6127008062002e0583390190565b81548183558181111562002dd75781836000526020600020918201910162002dd6919062002ddc565b5b505050565b62002e0191905b8082111562002dfd57600081600090555060010162002de3565b5090565b9056fe60806040523480156200001157600080fd5b506040516200270038038062002700833981810160405260a08110156200003757600080fd5b810190808051906020019092919080519060200190929190805160405193929190846401000000008211156200006c57600080fd5b838201915060208201858111156200008357600080fd5b8251866001820283011164010000000082111715620000a157600080fd5b8083526020830192505050908051906020019080838360005b83811015620000d7578082015181840152602081019050620000ba565b50505050905090810190601f168015620001055780820380516001836020036101000a031916815260200191505b506040526020018051906020019092919080519060200190929190505050846000806101000a81548173ffffffffffffffffffffffffffffffffffffffff021916908373ffffffffffffffffffffffffffffffffffffffff16021790555083600260006101000a81548173ffffffffffffffffffffffffffffffffffffffff021916908373ffffffffffffffffffffffffffffffffffffffff1602179055508260039080519060200190620001bc9291906200024a565b5081600460006101000a81548173ffffffffffffffffffffffffffffffffffffffff021916908373ffffffffffffffffffffffffffffffffffffffff16021790555080600160006101000a81548173ffffffffffffffffffffffffffffffffffffffff021916908373ffffffffffffffffffffffffffffffffffffffff1602179055505050505050620002f9565b828054600181600116156101000203166002900490600052602060002090601f016020900481019282601f106200028d57805160ff1916838001178555620002be565b82800160010185558215620002be579182015b82811115620002bd578251825591602001919060010190620002a0565b5b509050620002cd9190620002d1565b5090565b620002f691905b80821115620002f2576000816000905550600101620002d8565b5090565b90565b6123f780620003096000396000f3fe608060405234801561001057600080fd5b50600436106100ea5760003560e01c80638adaf2f91161008c578063a2522b4d11610066578063a2522b4d14610a7d578063aacd6a1214610ac1578063dbb2adfb14610cb8578063e64e645c14610cfc576100ea565b80638adaf2f91461057e5780638da5cb5b146106685780639b5d4c62146106b2576100ea565b806344da10df116100c857806344da10df146103015780634f8632ba146103eb5780634fb2e45d146104355780638a8bb41314610479576100ea565b806328c1f99b146100ef57806338d170731461013957806342472273146102bd575b600080fd5b6100f7610d46565b604051808273ffffffffffffffffffffffffffffffffffffffff1673ffffffffffffffffffffffffffffffffffffffff16815260200191505060405180910390f35b6102bb600480360360e081101561014f57600080fd5b810190808035906020019064010000000081111561016c57600080fd5b82018360208201111561017e57600080fd5b803590602001918460018302840111640100000000831117156101a057600080fd5b91908080601f016020809104026020016040519081016040528093929190818152602001838380828437600081840152601f19601f820116905080830192505050505050509192919290803590602001909291908035906020019064010000000081111561020d57600080fd5b82018360208201111561021f57600080fd5b8035906020019184600183028401116401000000008311171561024157600080fd5b91908080601f016020809104026020016040519081016040528093929190818152602001838380828437600081840152601f19601f82011690508083019250505050505050919291929080359060200190929190803590602001909291908035906020019092919080359060200190929190505050610d6c565b005b6102ff600480360360208110156102d357600080fd5b81019080803573ffffffffffffffffffffffffffffffffffffffff169060200190929190505050610eec565b005b6103ce6004803603606081101561031757600080fd5b810190808035906020019064010000000081111561033457600080fd5b82018360208201111561034657600080fd5b8035906020019184600183028401116401000000008311171561036857600080fd5b91908080601f016020809104026020016040519081016040528093929190818152602001838380828437600081840152601f19601f8201169050808301925050505050505091929192908035906020019092919080359060200190929190505050610fec565b604051808381526020018281526020019250505060405180910390f35b6103f361116d565b604051808273ffffffffffffffffffffffffffffffffffffffff1673ffffffffffffffffffffffffffffffffffffffff16815260200191505060405180910390f35b6104776004803603602081101561044b57600080fd5b81019080803573ffffffffffffffffffffffffffffffffffffffff169060200190929190505050611193565b005b610564600480360360c081101561048f57600080fd5b81019080803590602001906401000000008111156104ac57600080fd5b8201836020820111156104be57600080fd5b803590602001918460018302840111640100000000831117156104e057600080fd5b91908080601f016020809104026020016040519081016040528093929190818152602001838380828437600081840152601f19601f8201169050808301925050505050505091929192908035906020019092919080359060200190929190803590602001909291908035906020019092919080359060200190929190505050611292565b604051808215151515815260200191505060405180910390f35b61064b6004803603606081101561059457600080fd5b81019080803590602001906401000000008111156105b157600080fd5b8201836020820111156105c357600080fd5b803590602001918460018302840111640100000000831117156105e557600080fd5b91908080601f016020809104026020016040519081016040528093929190818152602001838380828437600081840152601f19601f82011690508083019250505050505050919291929080359060200190929190803590602001909291905050506117a6565b604051808381526020018281526020019250505060405180910390f35b610670611927565b604051808273ffffffffffffffffffffffffffffffffffffffff1673ffffffffffffffffffffffffffffffffffffffff16815260200191505060405180910390f35b610a7b60048036036101408110156106c957600080fd5b81019080803590602001906401000000008111156106e657600080fd5b8201836020820111156106f857600080fd5b8035906020019184600183028401116401000000008311171561071a57600080fd5b91908080601f016020809104026020016040519081016040528093929190818152602001838380828437600081840152601f19601f8201169050808301925050505050505091929192908035906020019064010000000081111561077d57600080fd5b82018360208201111561078f57600080fd5b803590602001918460208302840111640100000000831117156107b157600080fd5b919080806020026020016040519081016040528093929190818152602001838360200280828437600081840152601f19601f8201169050808301925050505050505091929192908035906020019064010000000081111561081157600080fd5b82018360208201111561082357600080fd5b8035906020019184602083028401116401000000008311171561084557600080fd5b919080806020026020016040519081016040528093929190818152602001838360200280828437600081840152601f19601f8201169050808301925050505050505091929192908035906020019092919080359060200190929190803590602001906401000000008111156108b957600080fd5b8201836020820111156108cb57600080fd5b803590602001918460018302840111640100000000831117156108ed57600080fd5b91908080601f016020809104026020016040519081016040528093929190818152602001838380828437600081840152601f19601f8201169050808301925050505050505091929192908035906020019064010000000081111561095057600080fd5b82018360208201111561096257600080fd5b8035906020019184602083028401116401000000008311171561098457600080fd5b919080806020026020016040519081016040528093929190818152602001838360200280828437600081840152601f19601f820116905080830192505050505050509192919290803590602001906401000000008111156109e457600080fd5b8201836020820111156109f657600080fd5b80359060200191846020830284011164010000000083111715610a1857600080fd5b919080806020026020016040519081016040528093929190818152602001838360200280828437600081840152601f19601f820116905080830192505050505050509192919290803590602001909291908035906020019092919050505061194c565b005b610abf60048036036020811015610a9357600080fd5b81019080803573ffffffffffffffffffffffffffffffffffffffff169060200190929190505050611e49565b005b610cb6600480360360a0811015610ad757600080fd5b8101908080359060200190640100000000811115610af457600080fd5b820183602082011115610b0657600080fd5b80359060200191846001830284011164010000000083111715610b2857600080fd5b91908080601f016020809104026020016040519081016040528093929190818152602001838380828437600081840152601f19601f82011690508083019250505050505050919291929080359060200190640100000000811115610b8b57600080fd5b820183602082011115610b9d57600080fd5b80359060200191846020830284011164010000000083111715610bbf57600080fd5b919080806020026020016040519081016040528093929190818152602001838360200280828437600081840152601f19601f82011690508083019250505050505050919291929080359060200190640100000000811115610c1f57600080fd5b820183602082011115610c3157600080fd5b80359060200191846020830284011164010000000083111715610c5357600080fd5b919080806020026020016040519081016040528093929190818152602001838360200280828437600081840152601f19601f8201169050808301925050505050505091929192908035906020019092919080359060200190929190505050611f4a565b005b610cfa60048036036020811015610cce57600080fd5b81019080803573ffffffffffffffffffffffffffffffffffffffff16906020019092919050505061229c565b005b610d0461239c565b604051808273ffffffffffffffffffffffffffffffffffffffff1673ffffffffffffffffffffffffffffffffffffffff16815260200191505060405180910390f35b600460009054906101000a900473ffffffffffffffffffffffffffffffffffffffff1681565b6000809054906101000a900473ffffffffffffffffffffffffffffffffffffffff1673ffffffffffffffffffffffffffffffffffffffff163373ffffffffffffffffffffffffffffffffffffffff1614610dc557600080fd5b81856040518082805190602001908083835b60208310610dfa5780518252602082019150602081019050602083039250610dd7565b6001836020036101000a03801982511681845116808217855250505050505090500191505060405180910390207f91f1c803f915ff4e4371f1b9e70e4b729caed69c00b024fb2e0d045663c7ffba89898888876040518080602001868152602001858152602001848152602001838152602001828103825287818151815260200191508051906020019080838360005b83811015610ea5578082015181840152602081019050610e8a565b50505050905090810190601f168015610ed25780820380516001836020036101000a031916815260200191505b50965050505050505060405180910390a350505050505050565b6000809054906101000a900473ffffffffffffffffffffffffffffffffffffffff1673ffffffffffffffffffffffffffffffffffffffff163373ffffffffffffffffffffffffffffffffffffffff1614610f4557600080fd5b80600160006101000a81548173ffffffffffffffffffffffffffffffffffffffff021916908373ffffffffffffffffffffffffffffffffffffffff1602179055507f212fd0ba98c7174b59c3621214e639e0c0429a3a38275728418c460425eda1eb81604051808273ffffffffffffffffffffffffffffffffffffffff1673ffffffffffffffffffffffffffffffffffffffff16815260200191505060405180910390a150565b600080600260009054906101000a900473ffffffffffffffffffffffffffffffffffffffff1673ffffffffffffffffffffffffffffffffffffffff163373ffffffffffffffffffffffffffffffffffffffff161461104957600080fd5b6005856040518082805190602001908083835b6020831061107f578051825260208201915060208101905060208303925061105c565b6001836020036101000a038019825116818451168082178552505050505050905001915050908152602001604051809103902060008581526020019081526020016000206000848152602001908152602001600020546006866040518082805190602001908083835b6020831061110b57805182526020820191506020810190506020830392506110e8565b6001836020036101000a0380198251168184511680821785525050505050509050019150509081526020016040518091039020600086815260200190815260200160002060008581526020019081526020016000205491509150935093915050565b600260009054906101000a900473ffffffffffffffffffffffffffffffffffffffff1681565b6000809054906101000a900473ffffffffffffffffffffffffffffffffffffffff1673ffffffffffffffffffffffffffffffffffffffff163373ffffffffffffffffffffffffffffffffffffffff16146111ec57600080fd5b806000806101000a81548173ffffffffffffffffffffffffffffffffffffffff021916908373ffffffffffffffffffffffffffffffffffffffff1602179055507f686812491fef51d22aaa1c0edb55989394e0fd256443d6d4a3e1cc0dc31780e181604051808273ffffffffffffffffffffffffffffffffffffffff1673ffffffffffffffffffffffffffffffffffffffff16815260200191505060405180910390a150565b60008060009054906101000a900473ffffffffffffffffffffffffffffffffffffffff1673ffffffffffffffffffffffffffffffffffffffff163373ffffffffffffffffffffffffffffffffffffffff16146112ed57600080fd5b6007876040518082805190602001908083835b602083106113235780518252602082019150602081019050602083039250611300565b6001836020036101000a03801982511681845116808217855250505050505090500191505090815260200160405180910390206000878152602001908152602001600020600080815260200190815260200160002054821015801561141357506008876040518082805190602001908083835b602083106113b95780518252602082019150602081019050602083039250611396565b6001836020036101000a038019825116818451168082178552505050505050905001915050908152602001604051809103902060008781526020019081526020016000206000808152602001908152602001600020548211155b8061154057506007876040518082805190602001908083835b6020831061144f578051825260208201915060208101905060208303925061142c565b6001836020036101000a03801982511681845116808217855250505050505090500191505090815260200160405180910390206000878152602001908152602001600020600086815260200190815260200160002054821015801561153f57506008876040518082805190602001908083835b602083106114e557805182526020820191506020810190506020830392506114c2565b6001836020036101000a038019825116818451168082178552505050505050905001915050908152602001604051809103902060008781526020019081526020016000206000868152602001908152602001600020548211155b5b8061166d57506007876040518082805190602001908083835b6020831061157c5780518252602082019150602081019050602083039250611559565b6001836020036101000a03801982511681845116808217855250505050505090500191505090815260200160405180910390206000878152602001908152602001600020600085815260200190815260200160002054821015801561166c57506008876040518082805190602001908083835b6020831061161257805182526020820191506020810190506020830392506115ef565b6001836020036101000a038019825116818451168082178552505050505050905001915050908152602001604051809103902060008781526020019081526020016000206000858152602001908152602001600020548211155b5b8061179a57506005876040518082805190602001908083835b602083106116a95780518252602082019150602081019050602083039250611686565b6001836020036101000a03801982511681845116808217855250505050505090500191505090815260200160405180910390206000878152602001908152602001600020600084815260200190815260200160002054821015801561179957506006876040518082805190602001908083835b6020831061173f578051825260208201915060208101905060208303925061171c565b6001836020036101000a038019825116818451168082178552505050505050905001915050908152602001604051809103902060008781526020019081526020016000206000848152602001908152602001600020548211155b5b90509695505050505050565b600080600260009054906101000a900473ffffffffffffffffffffffffffffffffffffffff1673ffffffffffffffffffffffffffffffffffffffff163373ffffffffffffffffffffffffffffffffffffffff161461180357600080fd5b6007856040518082805190602001908083835b602083106118395780518252602082019150602081019050602083039250611816565b6001836020036101000a038019825116818451168082178552505050505050905001915050908152602001604051809103902060008581526020019081526020016000206000848152602001908152602001600020546008866040518082805190602001908083835b602083106118c557805182526020820191506020810190506020830392506118a2565b6001836020036101000a0380198251168184511680821785525050505050509050019150509081526020016040518091039020600086815260200190815260200160002060008581526020019081526020016000205491509150935093915050565b6000809054906101000a900473ffffffffffffffffffffffffffffffffffffffff1681565b600260009054906101000a900473ffffffffffffffffffffffffffffffffffffffff1673ffffffffffffffffffffffffffffffffffffffff163373ffffffffffffffffffffffffffffffffffffffff16146119a657600080fd5b60008090505b8951811015611b4b5760008090505b8951811015611b3d578860078d6040518082805190602001908083835b602083106119fb57805182526020820191506020810190506020830392506119d8565b6001836020036101000a038019825116818451168082178552505050505050905001915050908152602001604051809103902060008d8581518110611a3c57fe5b6020026020010151815260200190815260200160002060008c8481518110611a6057fe5b60200260200101518152602001908152602001600020819055508760088d6040518082805190602001908083835b60208310611ab15780518252602082019150602081019050602083039250611a8e565b6001836020036101000a038019825116818451168082178552505050505050905001915050908152602001604051809103902060008d8581518110611af257fe5b6020026020010151815260200190815260200160002060008c8481518110611b1657fe5b602002602001015181526020019081526020016000208190555080806001019150506119bb565b5080806001019150506119ac565b5060008090505b8451811015611cfe5760008090505b8451811015611cf05782841115611b7757600080fd5b836007886040518082805190602001908083835b60208310611bae5780518252602082019150602081019050602083039250611b8b565b6001836020036101000a03801982511681845116808217855250505050505090500191505090815260200160405180910390206000888581518110611bef57fe5b602002602001015181526020019081526020016000206000878481518110611c1357fe5b6020026020010151815260200190815260200160002081905550826008886040518082805190602001908083835b60208310611c645780518252602082019150602081019050602083039250611c41565b6001836020036101000a03801982511681845116808217855250505050505090500191505090815260200160405180910390206000888581518110611ca557fe5b602002602001015181526020019081526020016000206000878481518110611cc957fe5b60200260200101518152602001908152602001600020819055508080600101915050611b61565b508080600101915050611b52565b507f0791d378931781e9cffd4585b49ffbc18f66fa0c5405392feefb329c3b231bb8858585858560405180806020018060200180602001868152602001858152602001848103845289818151815260200191508051906020019080838360005b83811015611d79578082015181840152602081019050611d5e565b50505050905090810190601f168015611da65780820380516001836020036101000a031916815260200191505b50848103835288818151815260200191508051906020019060200280838360005b83811015611de2578082015181840152602081019050611dc7565b50505050905001848103825287818151815260200191508051906020019060200280838360005b83811015611e24578082015181840152602081019050611e09565b505050509050019850505050505050505060405180910390a150505050505050505050565b600460009054906101000a900473ffffffffffffffffffffffffffffffffffffffff1673ffffffffffffffffffffffffffffffffffffffff163373ffffffffffffffffffffffffffffffffffffffff1614611ea357600080fd5b80600260006101000a81548173ffffffffffffffffffffffffffffffffffffffff021916908373ffffffffffffffffffffffffffffffffffffffff1602179055507f8843fe3c31cc61dc66ac4737567198edfeaf40be1c8fc90af728d9dc70898c3381604051808273ffffffffffffffffffffffffffffffffffffffff1673ffffffffffffffffffffffffffffffffffffffff16815260200191505060405180910390a150565b600260009054906101000a900473ffffffffffffffffffffffffffffffffffffffff1673ffffffffffffffffffffffffffffffffffffffff163373ffffffffffffffffffffffffffffffffffffffff1614611fa457600080fd5b60008090505b84518110156121565760008090505b84518110156121485782841115611fcf57600080fd5b836005886040518082805190602001908083835b602083106120065780518252602082019150602081019050602083039250611fe3565b6001836020036101000a0380198251168184511680821785525050505050509050019150509081526020016040518091039020600088858151811061204757fe5b60200260200101518152602001908152602001600020600087848151811061206b57fe5b6020026020010151815260200190815260200160002081905550826006886040518082805190602001908083835b602083106120bc5780518252602082019150602081019050602083039250612099565b6001836020036101000a038019825116818451168082178552505050505050905001915050908152602001604051809103902060008885815181106120fd57fe5b60200260200101518152602001908152602001600020600087848151811061212157fe5b60200260200101518152602001908152602001600020819055508080600101915050611fb9565b508080600101915050611faa565b507ffa30f0e2a0a8519fdba257e30abe2229b482696540c2ce3ba2462ffdfa88ab8d858585858560405180806020018060200180602001868152602001858152602001848103845289818151815260200191508051906020019080838360005b838110156121d15780820151818401526020810190506121b6565b50505050905090810190601f1680156121fe5780820380516001836020036101000a031916815260200191505b50848103835288818151815260200191508051906020019060200280838360005b8381101561223a57808201518184015260208101905061221f565b50505050905001848103825287818151815260200191508051906020019060200280838360005b8381101561227c578082015181840152602081019050612261565b505050509050019850505050505050505060405180910390a15050505050565b6000809054906101000a900473ffffffffffffffffffffffffffffffffffffffff1673ffffffffffffffffffffffffffffffffffffffff163373ffffffffffffffffffffffffffffffffffffffff16146122f557600080fd5b80600460006101000a81548173ffffffffffffffffffffffffffffffffffffffff021916908373ffffffffffffffffffffffffffffffffffffffff1602179055507f21340f6870149aee5e87711f88f9eb35e64c40f28be9566ebcd715d13b87a78f81604051808273ffffffffffffffffffffffffffffffffffffffff1673ffffffffffffffffffffffffffffffffffffffff16815260200191505060405180910390a150565b600160009054906101000a900473ffffffffffffffffffffffffffffffffffffffff168156fea265627a7a72315820bb198c48e2ed47c746fe108079520f747ab9105e92a9aacc5fa5993a8cca611864736f6c63430005100032a265627a7a723158209d312b2a0f8c6d0668bde6435218e794ca8389e0f2d9d261ac4418fc16bee25a64736f6c63430005100032",
  "source": "pragma solidity >=0.4.21 <0.7.0;\n//pragma experimental ABIEncoderV2;\n\nimport \"./CareRecordConsent.sol\";\n\ncontract RegistryContract{\n\n    address public owner;\n\n    struct User {\n        string u_id; //user \n        address CareRecordConsentAddr; //user \n        address etherAddr; //user ethereum (EOA);\n        address witnessAddr; //user address\n        uint accountStatus; //user 0=>1=>\n    }\n\n    event setNewUser(string u_id, address etherAddr, address _witnessAddr, address CareRecordConsentAddr, uint now);\n    event changeAccountStatus(string u_id, uint accountStatus, uint now);\n    event changeEthAddr(string u_id, address CareRecordConsentAddr, address etherAddr, uint accountStatus, uint now);\n    event changeWitness(string u_id, address NewWitnessAddr, uint now);\n    event changeCareRecordConsentAddr(string u_id, address CareRecordConsentAddr, uint now);\n    event manageWitness(address witnessAddr, bool oldIsWitnesses, bool NewIsWitnesses,uint now);\n\n    mapping (string=>User) users; //user(uid)\n    mapping (address=>bool) witnesses; //()\n    string[] userIndex;\n    address[] witnessIndex;\n    \n    constructor() public {\n        owner = msg.sender;\n    }\n\n    modifier isOwner() {\n        require(msg.sender == owner);\n        _;\n    }\n    modifier isWitness() { //msg.sender\n        require(witnesses[msg.sender]);\n        _;\n    }\n    modifier isSameWitness(string memory _u_id) { //msg.sender user\n        require(msg.sender == users[_u_id].witnessAddr);\n        _;\n    }\n\n    function getOwner() public view returns (address) {\n        return owner;\n    }\n\n    //user\n    function registerUser(string memory _u_id, address _etherAddr, address _witnessAddr) public isWitness {\n        require(msg.sender == _witnessAddr); //user [same as isSameWitness(), but _witnessAddr not set yet]\n        require(bytes(users[_u_id].u_id).length == 0);\n        users[_u_id].u_id = _u_id;\n        users[_u_id].etherAddr = _etherAddr;\n        users[_u_id].accountStatus = 1;\n        users[_u_id].witnessAddr = _witnessAddr;\n        users[_u_id].CareRecordConsentAddr = address(new CareRecordConsent(owner, _etherAddr, _u_id, address(this), owner));\n        userIndex.push(_u_id);\n        emit setNewUser(_u_id, _etherAddr, _witnessAddr, users[_u_id].CareRecordConsentAddr, now);\n    }\n\n    function setOldUser(string memory _u_id, address _etherAddr, uint accountStatus, address _witnessAddr, address _careRecordConsentAddr, uint time) public isOwner {\n        require(bytes(users[_u_id].u_id).length == 0);\n        users[_u_id].u_id = _u_id;\n        users[_u_id].etherAddr = _etherAddr;\n        users[_u_id].accountStatus = accountStatus;\n        users[_u_id].witnessAddr = _witnessAddr;\n        users[_u_id].CareRecordConsentAddr = _careRecordConsentAddr;\n        userIndex.push(_u_id);\n        emit setNewUser(_u_id, _etherAddr, _witnessAddr, _careRecordConsentAddr, time);\n    }\n    \n    //\n    function setWitness(string memory _u_id, address _NewWitnessAddr) public isOwner {\n        require(users[_u_id].accountStatus == 0);//\n        users[_u_id].witnessAddr = _NewWitnessAddr;\n        emit changeWitness(_u_id, _NewWitnessAddr, now);\n    }\n    \n    //user \n    function setCareRecordConsentAddr(string memory _u_id, address _CareRecordConsentAddr) public isOwner {\n        require(users[_u_id].accountStatus == 1);//\n        users[_u_id].CareRecordConsentAddr = _CareRecordConsentAddr;\n        emit changeCareRecordConsentAddr(_u_id, _CareRecordConsentAddr, now);\n    }\n    \n    //\n    function setAccountStatus(string memory _u_id, uint _accountStatus) public isOwner {\n        users[_u_id].accountStatus = _accountStatus;\n        emit changeAccountStatus(_u_id, _accountStatus, now);\n    }\n\n    //user()\n    function setEthAddr(string memory _u_id, address _newEtherAddr) public isWitness {\n        users[_u_id].etherAddr = _newEtherAddr;\n        // CareRecordConsentuser\n        CareRecordConsent(users[_u_id].CareRecordConsentAddr).transferUser(_newEtherAddr);\n        emit changeEthAddr(users[_u_id].u_id, users[_u_id].CareRecordConsentAddr, _newEtherAddr, users[_u_id].accountStatus, now);\n    }\n\n    //\n    function addWitness(address _witnessAddr) public isOwner {\n        require(!witnesses[_witnessAddr], \"the witness is already exist\");\n        bool oldWitnessStatus;\n        oldWitnessStatus = witnesses[_witnessAddr];\n        witnesses[_witnessAddr] = true;\n        \n        witnessIndex.push(_witnessAddr);\n        emit manageWitness(_witnessAddr, oldWitnessStatus, witnesses[_witnessAddr], now);\n    }\n\n    //\n    function deleteWitness(address _witnessAddr) public isOwner {\n        require(witnesses[_witnessAddr], \"the witness is not exist\");\n        bool oldWitnessStatus;\n        oldWitnessStatus = witnesses[_witnessAddr];\n        witnesses[_witnessAddr] = false;\n\n        //\n        uint len = witnessIndex.length;\n        for(uint i = 0 ; i < len ; i++){\n            if(witnessIndex[i] == _witnessAddr){\n                witnessIndex[i] = witnessIndex[len - 1];\n                witnessIndex.length--;\n                break;\n            }\n        }\n\n        emit manageWitness(_witnessAddr, oldWitnessStatus, witnesses[_witnessAddr], now);\n    }\n    \n    //user\n    function getUserCount() public view returns(uint userCount) {\n        return userIndex.length;\n    }\n\n    //get user information\n    function getUserInfo(string memory _u_id) public isOwner view returns (string memory u_id, address CareRecordConsentAddr, address etherAddr, uint accountStatus) {\n        return(users[_u_id].u_id, users[_u_id].CareRecordConsentAddr, users[_u_id].etherAddr, users[_u_id].accountStatus);\n    }\n    \n    //get \n    function getWitnesses() public view returns(address[] memory) {\n        return witnessIndex;\n    }\n\n/*string[]\n    //get user\n    function getAllUserInfo() public isOwner view  returns (string[], address[], address[], uint[]){\n        string[] memory u_ids = new string[](userIndex.length);\n        address[] memory assetAccounts = new address[](userIndex.length);\n        address[] memory etherAddrs = new address[](userIndex.length);\n        uint[]    memory accountStatus = new uint[](userIndex.length);\n\n        for (uint i = 0; i < userIndex.length; i++) {\n            User storage user = users[userIndex[i]];\n            u_ids[i] = user.u_id;\n            assetAccounts[i] = user.assetAccount;\n            etherAddrs[i] = user.etherAddr;\n            accountStatus[i] = user.accountStatus;\n        }\n\n        return (u_ids, assetAccounts, etherAddrs, accountStatus);\n    }\n*/\n\n}\n",
  "sourcePath": "/Users/roy105703007/Desktop/NTU/contracts/RegistryContract.sol",
  "compiler": {
    "name": "solc",
    "version": "0.5.16+commit.9c3226ce.Emscripten.clang"
  },
  "schemaVersion": "3.0.23",
  "updatedAt": "2020-03-30T08:11:25.723Z",
  "networkType": "ethereum",
  "devdoc": {
    "methods": {}
  },
  "userdoc": {
    "methods": {}
  }
}