{
  "contractName": "RegistryContract",
  "abi": [
    {
      "inputs": [],
      "payable": false,
      "stateMutability": "nonpayable",
      "type": "constructor"
    },
    {
      "anonymous": false,
      "inputs": [
        {
          "indexed": false,
          "internalType": "string",
          "name": "u_id",
          "type": "string"
        },
        {
          "indexed": false,
          "internalType": "uint256",
          "name": "accountStatus",
          "type": "uint256"
        },
        {
          "indexed": false,
          "internalType": "uint256",
          "name": "now",
          "type": "uint256"
        }
      ],
      "name": "changeAccountStatus",
      "type": "event"
    },
    {
      "anonymous": false,
      "inputs": [
        {
          "indexed": false,
          "internalType": "string",
          "name": "u_id",
          "type": "string"
        },
        {
          "indexed": false,
          "internalType": "address",
          "name": "CareRecordConsentAddr",
          "type": "address"
        },
        {
          "indexed": false,
          "internalType": "uint256",
          "name": "now",
          "type": "uint256"
        }
      ],
      "name": "changeCareRecordConsentAddr",
      "type": "event"
    },
    {
      "anonymous": false,
      "inputs": [
        {
          "indexed": false,
          "internalType": "string",
          "name": "u_id",
          "type": "string"
        },
        {
          "indexed": false,
          "internalType": "address",
          "name": "CareRecordConsentAddr",
          "type": "address"
        },
        {
          "indexed": false,
          "internalType": "address",
          "name": "etherAddr",
          "type": "address"
        },
        {
          "indexed": false,
          "internalType": "uint256",
          "name": "accountStatus",
          "type": "uint256"
        },
        {
          "indexed": false,
          "internalType": "uint256",
          "name": "now",
          "type": "uint256"
        }
      ],
      "name": "changeEthAddr",
      "type": "event"
    },
    {
      "anonymous": false,
      "inputs": [
        {
          "indexed": false,
          "internalType": "string",
          "name": "u_id",
          "type": "string"
        },
        {
          "indexed": false,
          "internalType": "address",
          "name": "NewWitnessAddr",
          "type": "address"
        },
        {
          "indexed": false,
          "internalType": "uint256",
          "name": "now",
          "type": "uint256"
        }
      ],
      "name": "changeWitness",
      "type": "event"
    },
    {
      "anonymous": false,
      "inputs": [
        {
          "indexed": false,
          "internalType": "address",
          "name": "witnessAddr",
          "type": "address"
        },
        {
          "indexed": false,
          "internalType": "bool",
          "name": "oldIsWitnesses",
          "type": "bool"
        },
        {
          "indexed": false,
          "internalType": "bool",
          "name": "NewIsWitnesses",
          "type": "bool"
        },
        {
          "indexed": false,
          "internalType": "uint256",
          "name": "now",
          "type": "uint256"
        }
      ],
      "name": "manageWitness",
      "type": "event"
    },
    {
      "anonymous": false,
      "inputs": [
        {
          "indexed": false,
          "internalType": "string",
          "name": "u_id",
          "type": "string"
        },
        {
          "indexed": false,
          "internalType": "address",
          "name": "etherAddr",
          "type": "address"
        },
        {
          "indexed": false,
          "internalType": "address",
          "name": "_witnessAddr",
          "type": "address"
        },
        {
          "indexed": false,
          "internalType": "address",
          "name": "CareRecordConsentAddr",
          "type": "address"
        },
        {
          "indexed": false,
          "internalType": "uint256",
          "name": "now",
          "type": "uint256"
        }
      ],
      "name": "setNewUser",
      "type": "event"
    },
    {
      "constant": true,
      "inputs": [],
      "name": "owner",
      "outputs": [
        {
          "internalType": "address",
          "name": "",
          "type": "address"
        }
      ],
      "payable": false,
      "stateMutability": "view",
      "type": "function"
    },
    {
      "constant": true,
      "inputs": [],
      "name": "getOwner",
      "outputs": [
        {
          "internalType": "address",
          "name": "",
          "type": "address"
        }
      ],
      "payable": false,
      "stateMutability": "view",
      "type": "function"
    },
    {
      "constant": false,
      "inputs": [
        {
          "internalType": "string",
          "name": "_u_id",
          "type": "string"
        },
        {
          "internalType": "address",
          "name": "_etherAddr",
          "type": "address"
        },
        {
          "internalType": "address",
          "name": "_witnessAddr",
          "type": "address"
        }
      ],
      "name": "registerUser",
      "outputs": [],
      "payable": false,
      "stateMutability": "nonpayable",
      "type": "function"
    },
    {
      "constant": false,
      "inputs": [
        {
          "internalType": "string",
          "name": "_u_id",
          "type": "string"
        },
        {
          "internalType": "address",
          "name": "_etherAddr",
          "type": "address"
        },
        {
          "internalType": "uint256",
          "name": "accountStatus",
          "type": "uint256"
        },
        {
          "internalType": "address",
          "name": "_witnessAddr",
          "type": "address"
        },
        {
          "internalType": "address",
          "name": "_careRecordConsentAddr",
          "type": "address"
        },
        {
          "internalType": "uint256",
          "name": "time",
          "type": "uint256"
        }
      ],
      "name": "setOldUser",
      "outputs": [],
      "payable": false,
      "stateMutability": "nonpayable",
      "type": "function"
    },
    {
      "constant": false,
      "inputs": [
        {
          "internalType": "string",
          "name": "_u_id",
          "type": "string"
        },
        {
          "internalType": "address",
          "name": "_NewWitnessAddr",
          "type": "address"
        }
      ],
      "name": "setWitness",
      "outputs": [],
      "payable": false,
      "stateMutability": "nonpayable",
      "type": "function"
    },
    {
      "constant": false,
      "inputs": [
        {
          "internalType": "string",
          "name": "_u_id",
          "type": "string"
        },
        {
          "internalType": "address",
          "name": "_CareRecordConsentAddr",
          "type": "address"
        }
      ],
      "name": "setCareRecordConsentAddr",
      "outputs": [],
      "payable": false,
      "stateMutability": "nonpayable",
      "type": "function"
    },
    {
      "constant": false,
      "inputs": [
        {
          "internalType": "string",
          "name": "_u_id",
          "type": "string"
        },
        {
          "internalType": "uint256",
          "name": "_accountStatus",
          "type": "uint256"
        }
      ],
      "name": "setAccountStatus",
      "outputs": [],
      "payable": false,
      "stateMutability": "nonpayable",
      "type": "function"
    },
    {
      "constant": false,
      "inputs": [
        {
          "internalType": "string",
          "name": "_u_id",
          "type": "string"
        },
        {
          "internalType": "address",
          "name": "_newEtherAddr",
          "type": "address"
        }
      ],
      "name": "setEthAddr",
      "outputs": [],
      "payable": false,
      "stateMutability": "nonpayable",
      "type": "function"
    },
    {
      "constant": false,
      "inputs": [
        {
          "internalType": "address",
          "name": "_witnessAddr",
          "type": "address"
        }
      ],
      "name": "addWitness",
      "outputs": [],
      "payable": false,
      "stateMutability": "nonpayable",
      "type": "function"
    },
    {
      "constant": false,
      "inputs": [
        {
          "internalType": "address",
          "name": "_witnessAddr",
          "type": "address"
        }
      ],
      "name": "deleteWitness",
      "outputs": [],
      "payable": false,
      "stateMutability": "nonpayable",
      "type": "function"
    },
    {
      "constant": true,
      "inputs": [],
      "name": "getUserCount",
      "outputs": [
        {
          "internalType": "uint256",
          "name": "userCount",
          "type": "uint256"
        }
      ],
      "payable": false,
      "stateMutability": "view",
      "type": "function"
    },
    {
      "constant": true,
      "inputs": [
        {
          "internalType": "string",
          "name": "_u_id",
          "type": "string"
        }
      ],
      "name": "getUserInfo",
      "outputs": [
        {
          "internalType": "string",
          "name": "u_id",
          "type": "string"
        },
        {
          "internalType": "address",
          "name": "CareRecordConsentAddr",
          "type": "address"
        },
        {
          "internalType": "address",
          "name": "etherAddr",
          "type": "address"
        },
        {
          "internalType": "uint256",
          "name": "accountStatus",
          "type": "uint256"
        }
      ],
      "payable": false,
      "stateMutability": "view",
      "type": "function"
    },
    {
      "constant": true,
      "inputs": [],
      "name": "getWitnesses",
      "outputs": [
        {
          "internalType": "address[]",
          "name": "",
          "type": "address[]"
        }
      ],
      "payable": false,
      "stateMutability": "view",
      "type": "function"
    }
  ],
  "bytecode": "0x608060405234801561001057600080fd5b50336000806101000a81548173ffffffffffffffffffffffffffffffffffffffff021916908373ffffffffffffffffffffffffffffffffffffffff16021790555061594f806100606000396000f3fe60806040523480156200001157600080fd5b5060043610620000e25760003560e01c80638da5cb5b1162000099578063a80ba7bf116200006f578063a80ba7bf14620006dd578063b5cb15f714620007be578063b91fddf314620007de578063fb14f771146200091357620000e2565b80638da5cb5b146200054d57806396d195bd14620005995780639f9b2da914620005fc57620000e2565b80634b512eaa14620000e757806359e26be114620001e85780635a14b678146200022f5780637c9b7fdd14620003105780638441f89e14620004ba578063893d20e81462000501575b600080fd5b620001e660048036036060811015620000ff57600080fd5b81019080803590602001906401000000008111156200011d57600080fd5b8201836020820111156200013057600080fd5b803590602001918460018302840111640100000000831117156200015357600080fd5b91908080601f016020809104026020016040519081016040528093929190818152602001838380828437600081840152601f19601f820116905080830192505050505050509192919290803573ffffffffffffffffffffffffffffffffffffffff169060200190929190803573ffffffffffffffffffffffffffffffffffffffff169060200190929190505050620009de565b005b6200022d600480360360208110156200020057600080fd5b81019080803573ffffffffffffffffffffffffffffffffffffffff169060200190929190505050620011c4565b005b6200030e600480360360408110156200024757600080fd5b81019080803590602001906401000000008111156200026557600080fd5b8201836020820111156200027857600080fd5b803590602001918460018302840111640100000000831117156200029b57600080fd5b91908080601f016020809104026020016040519081016040528093929190818152602001838380828437600081840152601f19601f820116905080830192505050505050509192919290803573ffffffffffffffffffffffffffffffffffffffff169060200190929190505050620014c1565b005b620003cf600480360360208110156200032857600080fd5b81019080803590602001906401000000008111156200034657600080fd5b8201836020820111156200035957600080fd5b803590602001918460018302840111640100000000831117156200037c57600080fd5b91908080601f016020809104026020016040519081016040528093929190818152602001838380828437600081840152601f19601f82011690508083019250505050505050919291929050505062001723565b60405180806020018573ffffffffffffffffffffffffffffffffffffffff1673ffffffffffffffffffffffffffffffffffffffff1681526020018473ffffffffffffffffffffffffffffffffffffffff1673ffffffffffffffffffffffffffffffffffffffff168152602001838152602001828103825286818151815260200191508051906020019080838360005b838110156200047b5780820151818401526020810190506200045e565b50505050905090810190601f168015620004a95780820380516001836020036101000a031916815260200191505b509550505050505060405180910390f35b620004ff60048036036020811015620004d257600080fd5b81019080803573ffffffffffffffffffffffffffffffffffffffff16906020019092919050505062001a2e565b005b6200050b62001e0a565b604051808273ffffffffffffffffffffffffffffffffffffffff1673ffffffffffffffffffffffffffffffffffffffff16815260200191505060405180910390f35b6200055762001e33565b604051808273ffffffffffffffffffffffffffffffffffffffff1673ffffffffffffffffffffffffffffffffffffffff16815260200191505060405180910390f35b620005a362001e58565b6040518080602001828103825283818151815260200191508051906020019060200280838360005b83811015620005e8578082015181840152602081019050620005cb565b505050509050019250505060405180910390f35b620006db600480360360408110156200061457600080fd5b81019080803590602001906401000000008111156200063257600080fd5b8201836020820111156200064557600080fd5b803590602001918460018302840111640100000000831117156200066857600080fd5b91908080601f016020809104026020016040519081016040528093929190818152602001838380828437600081840152601f19601f820116905080830192505050505050509192919290803573ffffffffffffffffffffffffffffffffffffffff16906020019092919050505062001ee8565b005b620007bc60048036036040811015620006f557600080fd5b81019080803590602001906401000000008111156200071357600080fd5b8201836020820111156200072657600080fd5b803590602001918460018302840111640100000000831117156200074957600080fd5b91908080601f016020809104026020016040519081016040528093929190818152602001838380828437600081840152601f19601f820116905080830192505050505050509192919290803573ffffffffffffffffffffffffffffffffffffffff169060200190929190505050620023b5565b005b620007c862002616565b6040518082815260200191505060405180910390f35b62000911600480360360c0811015620007f657600080fd5b81019080803590602001906401000000008111156200081457600080fd5b8201836020820111156200082757600080fd5b803590602001918460018302840111640100000000831117156200084a57600080fd5b91908080601f016020809104026020016040519081016040528093929190818152602001838380828437600081840152601f19601f820116905080830192505050505050509192919290803573ffffffffffffffffffffffffffffffffffffffff16906020019092919080359060200190929190803573ffffffffffffffffffffffffffffffffffffffff169060200190929190803573ffffffffffffffffffffffffffffffffffffffff1690602001909291908035906020019092919050505062002623565b005b620009dc600480360360408110156200092b57600080fd5b81019080803590602001906401000000008111156200094957600080fd5b8201836020820111156200095c57600080fd5b803590602001918460018302840111640100000000831117156200097f57600080fd5b91908080601f016020809104026020016040519081016040528093929190818152602001838380828437600081840152601f19601f8201169050808301925050505050505091929192908035906020019092919050505062002b98565b005b600260003373ffffffffffffffffffffffffffffffffffffffff1673ffffffffffffffffffffffffffffffffffffffff16815260200190815260200160002060009054906101000a900460ff1662000a3557600080fd5b8073ffffffffffffffffffffffffffffffffffffffff163373ffffffffffffffffffffffffffffffffffffffff161462000a6e57600080fd5b60006001846040518082805190602001908083835b6020831062000aa8578051825260208201915060208101905060208303925062000a83565b6001836020036101000a03801982511681845116808217855250505050505090500191505090815260200160405180910390206000018054600181600116156101000203166002900490501462000afe57600080fd5b826001846040518082805190602001908083835b6020831062000b37578051825260208201915060208101905060208303925062000b12565b6001836020036101000a0380198251168184511680821785525050505050509050019150509081526020016040518091039020600001908051906020019062000b8292919062002d18565b50816001846040518082805190602001908083835b6020831062000bbc578051825260208201915060208101905060208303925062000b97565b6001836020036101000a038019825116818451168082178552505050505050905001915050908152602001604051809103902060020160006101000a81548173ffffffffffffffffffffffffffffffffffffffff021916908373ffffffffffffffffffffffffffffffffffffffff160217905550600180846040518082805190602001908083835b6020831062000c69578051825260208201915060208101905060208303925062000c44565b6001836020036101000a038019825116818451168082178552505050505050905001915050908152602001604051809103902060040181905550806001846040518082805190602001908083835b6020831062000cdc578051825260208201915060208101905060208303925062000cb7565b6001836020036101000a038019825116818451168082178552505050505050905001915050908152602001604051809103902060030160006101000a81548173ffffffffffffffffffffffffffffffffffffffff021916908373ffffffffffffffffffffffffffffffffffffffff1602179055506000809054906101000a900473ffffffffffffffffffffffffffffffffffffffff168284306000809054906101000a900473ffffffffffffffffffffffffffffffffffffffff1660405162000da59062002d9f565b808673ffffffffffffffffffffffffffffffffffffffff1673ffffffffffffffffffffffffffffffffffffffff1681526020018573ffffffffffffffffffffffffffffffffffffffff1673ffffffffffffffffffffffffffffffffffffffff168152602001806020018473ffffffffffffffffffffffffffffffffffffffff1673ffffffffffffffffffffffffffffffffffffffff1681526020018373ffffffffffffffffffffffffffffffffffffffff1673ffffffffffffffffffffffffffffffffffffffff168152602001828103825285818151815260200191508051906020019080838360005b8381101562000eac57808201518184015260208101905062000e8f565b50505050905090810190601f16801562000eda5780820380516001836020036101000a031916815260200191505b509650505050505050604051809103906000f08015801562000f00573d6000803e3d6000fd5b506001846040518082805190602001908083835b6020831062000f39578051825260208201915060208101905060208303925062000f14565b6001836020036101000a038019825116818451168082178552505050505050905001915050908152602001604051809103902060010160006101000a81548173ffffffffffffffffffffffffffffffffffffffff021916908373ffffffffffffffffffffffffffffffffffffffff160217905550600383908060018154018082558091505090600182039060005260206000200160009091929091909150908051906020019062000fec92919062002d18565b50507f2ddb3daa6644b85267bdaf4ffe67a38764d270630858985cf63ea29cb8782cd88383836001876040518082805190602001908083835b602083106200104a578051825260208201915060208101905060208303925062001025565b6001836020036101000a038019825116818451168082178552505050505050905001915050908152602001604051809103902060010160009054906101000a900473ffffffffffffffffffffffffffffffffffffffff164260405180806020018673ffffffffffffffffffffffffffffffffffffffff1673ffffffffffffffffffffffffffffffffffffffff1681526020018573ffffffffffffffffffffffffffffffffffffffff1673ffffffffffffffffffffffffffffffffffffffff1681526020018473ffffffffffffffffffffffffffffffffffffffff1673ffffffffffffffffffffffffffffffffffffffff168152602001838152602001828103825287818151815260200191508051906020019080838360005b838110156200118057808201518184015260208101905062001163565b50505050905090810190601f168015620011ae5780820380516001836020036101000a031916815260200191505b50965050505050505060405180910390a1505050565b6000809054906101000a900473ffffffffffffffffffffffffffffffffffffffff1673ffffffffffffffffffffffffffffffffffffffff163373ffffffffffffffffffffffffffffffffffffffff16146200121e57600080fd5b600260008273ffffffffffffffffffffffffffffffffffffffff1673ffffffffffffffffffffffffffffffffffffffff16815260200190815260200160002060009054906101000a900460ff1615620012df576040517f08c379a000000000000000000000000000000000000000000000000000000000815260040180806020018281038252601c8152602001807f746865207769746e65737320697320616c72656164792065786973740000000081525060200191505060405180910390fd5b6000600260008373ffffffffffffffffffffffffffffffffffffffff1673ffffffffffffffffffffffffffffffffffffffff16815260200190815260200160002060009054906101000a900460ff1690506001600260008473ffffffffffffffffffffffffffffffffffffffff1673ffffffffffffffffffffffffffffffffffffffff16815260200190815260200160002060006101000a81548160ff02191690831515021790555060048290806001815401808255809150509060018203906000526020600020016000909192909190916101000a81548173ffffffffffffffffffffffffffffffffffffffff021916908373ffffffffffffffffffffffffffffffffffffffff160217905550507f62dfeceb735d175bbcdb97d43b7ee092b4731c2dc3aa7c768d2b32520c6137688282600260008673ffffffffffffffffffffffffffffffffffffffff1673ffffffffffffffffffffffffffffffffffffffff16815260200190815260200160002060009054906101000a900460ff1642604051808573ffffffffffffffffffffffffffffffffffffffff1673ffffffffffffffffffffffffffffffffffffffff168152602001841515151581526020018315151515815260200182815260200194505050505060405180910390a15050565b6000809054906101000a900473ffffffffffffffffffffffffffffffffffffffff1673ffffffffffffffffffffffffffffffffffffffff163373ffffffffffffffffffffffffffffffffffffffff16146200151b57600080fd5b60006001836040518082805190602001908083835b6020831062001555578051825260208201915060208101905060208303925062001530565b6001836020036101000a038019825116818451168082178552505050505050905001915050908152602001604051809103902060040154146200159757600080fd5b806001836040518082805190602001908083835b60208310620015d05780518252602082019150602081019050602083039250620015ab565b6001836020036101000a038019825116818451168082178552505050505050905001915050908152602001604051809103902060030160006101000a81548173ffffffffffffffffffffffffffffffffffffffff021916908373ffffffffffffffffffffffffffffffffffffffff1602179055507f6126b67e3a0d74a6e0bbbd124027b79ba32619adc9f30516fa4aa4169a08084882824260405180806020018473ffffffffffffffffffffffffffffffffffffffff1673ffffffffffffffffffffffffffffffffffffffff168152602001838152602001828103825285818151815260200191508051906020019080838360005b83811015620016e2578082015181840152602081019050620016c5565b50505050905090810190601f168015620017105780820380516001836020036101000a031916815260200191505b5094505050505060405180910390a15050565b606060008060008060009054906101000a900473ffffffffffffffffffffffffffffffffffffffff1673ffffffffffffffffffffffffffffffffffffffff163373ffffffffffffffffffffffffffffffffffffffff16146200178457600080fd5b6001856040518082805190602001908083835b60208310620017bc578051825260208201915060208101905060208303925062001797565b6001836020036101000a03801982511681845116808217855250505050505090500191505090815260200160405180910390206000016001866040518082805190602001908083835b602083106200182a578051825260208201915060208101905060208303925062001805565b6001836020036101000a038019825116818451168082178552505050505050905001915050908152602001604051809103902060010160009054906101000a900473ffffffffffffffffffffffffffffffffffffffff166001876040518082805190602001908083835b60208310620018b9578051825260208201915060208101905060208303925062001894565b6001836020036101000a038019825116818451168082178552505050505050905001915050908152602001604051809103902060020160009054906101000a900473ffffffffffffffffffffffffffffffffffffffff166001886040518082805190602001908083835b6020831062001948578051825260208201915060208101905060208303925062001923565b6001836020036101000a038019825116818451168082178552505050505050905001915050908152602001604051809103902060040154838054600181600116156101000203166002900480601f01602080910402602001604051908101604052809291908181526020018280546001816001161561010002031660029004801562001a185780601f10620019ec5761010080835404028352916020019162001a18565b820191906000526020600020905b815481529060010190602001808311620019fa57829003601f168201915b5050505050935093509350935093509193509193565b6000809054906101000a900473ffffffffffffffffffffffffffffffffffffffff1673ffffffffffffffffffffffffffffffffffffffff163373ffffffffffffffffffffffffffffffffffffffff161462001a8857600080fd5b600260008273ffffffffffffffffffffffffffffffffffffffff1673ffffffffffffffffffffffffffffffffffffffff16815260200190815260200160002060009054906101000a900460ff1662001b48576040517f08c379a00000000000000000000000000000000000000000000000000000000081526004018080602001828103825260188152602001807f746865207769746e657373206973206e6f74206578697374000000000000000081525060200191505060405180910390fd5b6000600260008373ffffffffffffffffffffffffffffffffffffffff1673ffffffffffffffffffffffffffffffffffffffff16815260200190815260200160002060009054906101000a900460ff1690506000600260008473ffffffffffffffffffffffffffffffffffffffff1673ffffffffffffffffffffffffffffffffffffffff16815260200190815260200160002060006101000a81548160ff0219169083151502179055506000600480549050905060008090505b8181101562001d35578373ffffffffffffffffffffffffffffffffffffffff166004828154811062001c2f57fe5b9060005260206000200160009054906101000a900473ffffffffffffffffffffffffffffffffffffffff1673ffffffffffffffffffffffffffffffffffffffff16141562001d27576004600183038154811062001c8857fe5b9060005260206000200160009054906101000a900473ffffffffffffffffffffffffffffffffffffffff166004828154811062001cc157fe5b9060005260206000200160006101000a81548173ffffffffffffffffffffffffffffffffffffffff021916908373ffffffffffffffffffffffffffffffffffffffff160217905550600480548091906001900362001d20919062002dad565b5062001d35565b808060010191505062001c01565b507f62dfeceb735d175bbcdb97d43b7ee092b4731c2dc3aa7c768d2b32520c6137688383600260008773ffffffffffffffffffffffffffffffffffffffff1673ffffffffffffffffffffffffffffffffffffffff16815260200190815260200160002060009054906101000a900460ff1642604051808573ffffffffffffffffffffffffffffffffffffffff1673ffffffffffffffffffffffffffffffffffffffff168152602001841515151581526020018315151515815260200182815260200194505050505060405180910390a1505050565b60008060009054906101000a900473ffffffffffffffffffffffffffffffffffffffff16905090565b6000809054906101000a900473ffffffffffffffffffffffffffffffffffffffff1681565b6060600480548060200260200160405190810160405280929190818152602001828054801562001ede57602002820191906000526020600020905b8160009054906101000a900473ffffffffffffffffffffffffffffffffffffffff1673ffffffffffffffffffffffffffffffffffffffff168152602001906001019080831162001e93575b5050505050905090565b600260003373ffffffffffffffffffffffffffffffffffffffff1673ffffffffffffffffffffffffffffffffffffffff16815260200190815260200160002060009054906101000a900460ff1662001f3f57600080fd5b806001836040518082805190602001908083835b6020831062001f78578051825260208201915060208101905060208303925062001f53565b6001836020036101000a038019825116818451168082178552505050505050905001915050908152602001604051809103902060020160006101000a81548173ffffffffffffffffffffffffffffffffffffffff021916908373ffffffffffffffffffffffffffffffffffffffff1602179055506001826040518082805190602001908083835b6020831062002024578051825260208201915060208101905060208303925062001fff565b6001836020036101000a038019825116818451168082178552505050505050905001915050908152602001604051809103902060010160009054906101000a900473ffffffffffffffffffffffffffffffffffffffff1673ffffffffffffffffffffffffffffffffffffffff1663a2522b4d826040518263ffffffff1660e01b8152600401808273ffffffffffffffffffffffffffffffffffffffff1673ffffffffffffffffffffffffffffffffffffffff168152602001915050600060405180830381600087803b158015620020fa57600080fd5b505af11580156200210f573d6000803e3d6000fd5b505050507f35fa0fb579d9fe2fdbb1c610b20681cc96610e2c6b1710acc5f9bc9bf7d5edc76001836040518082805190602001908083835b602083106200216c578051825260208201915060208101905060208303925062002147565b6001836020036101000a03801982511681845116808217855250505050505090500191505090815260200160405180910390206000016001846040518082805190602001908083835b60208310620021da5780518252602082019150602081019050602083039250620021b5565b6001836020036101000a038019825116818451168082178552505050505050905001915050908152602001604051809103902060010160009054906101000a900473ffffffffffffffffffffffffffffffffffffffff16836001866040518082805190602001908083835b602083106200226a578051825260208201915060208101905060208303925062002245565b6001836020036101000a0380198251168184511680821785525050505050509050019150509081526020016040518091039020600401544260405180806020018673ffffffffffffffffffffffffffffffffffffffff1673ffffffffffffffffffffffffffffffffffffffff1681526020018573ffffffffffffffffffffffffffffffffffffffff1673ffffffffffffffffffffffffffffffffffffffff1681526020018481526020018381526020018281038252878181546001816001161561010002031660029004815260200191508054600181600116156101000203166002900480156200239f5780601f1062002373576101008083540402835291602001916200239f565b820191906000526020600020905b8154815290600101906020018083116200238157829003601f168201915b5050965050505050505060405180910390a15050565b6000809054906101000a900473ffffffffffffffffffffffffffffffffffffffff1673ffffffffffffffffffffffffffffffffffffffff163373ffffffffffffffffffffffffffffffffffffffff16146200240f57600080fd5b600180836040518082805190602001908083835b6020831062002448578051825260208201915060208101905060208303925062002423565b6001836020036101000a038019825116818451168082178552505050505050905001915050908152602001604051809103902060040154146200248a57600080fd5b806001836040518082805190602001908083835b60208310620024c357805182526020820191506020810190506020830392506200249e565b6001836020036101000a038019825116818451168082178552505050505050905001915050908152602001604051809103902060010160006101000a81548173ffffffffffffffffffffffffffffffffffffffff021916908373ffffffffffffffffffffffffffffffffffffffff1602179055507f81aeb064701b0549f79aa40869f49b5701e5558a80cfca5a99a5e038b983537482824260405180806020018473ffffffffffffffffffffffffffffffffffffffff1673ffffffffffffffffffffffffffffffffffffffff168152602001838152602001828103825285818151815260200191508051906020019080838360005b83811015620025d5578082015181840152602081019050620025b8565b50505050905090810190601f168015620026035780820380516001836020036101000a031916815260200191505b5094505050505060405180910390a15050565b6000600380549050905090565b6000809054906101000a900473ffffffffffffffffffffffffffffffffffffffff1673ffffffffffffffffffffffffffffffffffffffff163373ffffffffffffffffffffffffffffffffffffffff16146200267d57600080fd5b60006001876040518082805190602001908083835b60208310620026b7578051825260208201915060208101905060208303925062002692565b6001836020036101000a0380198251168184511680821785525050505050509050019150509081526020016040518091039020600001805460018160011615610100020316600290049050146200270d57600080fd5b856001876040518082805190602001908083835b6020831062002746578051825260208201915060208101905060208303925062002721565b6001836020036101000a038019825116818451168082178552505050505050905001915050908152602001604051809103902060000190805190602001906200279192919062002d18565b50846001876040518082805190602001908083835b60208310620027cb5780518252602082019150602081019050602083039250620027a6565b6001836020036101000a038019825116818451168082178552505050505050905001915050908152602001604051809103902060020160006101000a81548173ffffffffffffffffffffffffffffffffffffffff021916908373ffffffffffffffffffffffffffffffffffffffff160217905550836001876040518082805190602001908083835b6020831062002878578051825260208201915060208101905060208303925062002853565b6001836020036101000a038019825116818451168082178552505050505050905001915050908152602001604051809103902060040181905550826001876040518082805190602001908083835b60208310620028eb5780518252602082019150602081019050602083039250620028c6565b6001836020036101000a038019825116818451168082178552505050505050905001915050908152602001604051809103902060030160006101000a81548173ffffffffffffffffffffffffffffffffffffffff021916908373ffffffffffffffffffffffffffffffffffffffff160217905550816001876040518082805190602001908083835b6020831062002998578051825260208201915060208101905060208303925062002973565b6001836020036101000a038019825116818451168082178552505050505050905001915050908152602001604051809103902060010160006101000a81548173ffffffffffffffffffffffffffffffffffffffff021916908373ffffffffffffffffffffffffffffffffffffffff160217905550600386908060018154018082558091505090600182039060005260206000200160009091929091909150908051906020019062002a4b92919062002d18565b50507f2ddb3daa6644b85267bdaf4ffe67a38764d270630858985cf63ea29cb8782cd8868685858560405180806020018673ffffffffffffffffffffffffffffffffffffffff1673ffffffffffffffffffffffffffffffffffffffff1681526020018573ffffffffffffffffffffffffffffffffffffffff1673ffffffffffffffffffffffffffffffffffffffff1681526020018473ffffffffffffffffffffffffffffffffffffffff1673ffffffffffffffffffffffffffffffffffffffff168152602001838152602001828103825287818151815260200191508051906020019080838360005b8381101562002b5157808201518184015260208101905062002b34565b50505050905090810190601f16801562002b7f5780820380516001836020036101000a031916815260200191505b50965050505050505060405180910390a1505050505050565b6000809054906101000a900473ffffffffffffffffffffffffffffffffffffffff1673ffffffffffffffffffffffffffffffffffffffff163373ffffffffffffffffffffffffffffffffffffffff161462002bf257600080fd5b806001836040518082805190602001908083835b6020831062002c2b578051825260208201915060208101905060208303925062002c06565b6001836020036101000a0380198251168184511680821785525050505050509050019150509081526020016040518091039020600401819055507fd4343f934dbf8ce5a9303988359494dbf11ff76e9c85ee73b878a09b4cb60c868282426040518080602001848152602001838152602001828103825285818151815260200191508051906020019080838360005b8381101562002cd757808201518184015260208101905062002cba565b50505050905090810190601f16801562002d055780820380516001836020036101000a031916815260200191505b5094505050505060405180910390a15050565b828054600181600116156101000203166002900490600052602060002090601f016020900481019282601f1062002d5b57805160ff191683800117855562002d8c565b8280016001018555821562002d8c579182015b8281111562002d8b57825182559160200191906001019062002d6e565b5b50905062002d9b919062002ddc565b5090565b612b168062002e0583390190565b81548183558181111562002dd75781836000526020600020918201910162002dd6919062002ddc565b5b505050565b62002e0191905b8082111562002dfd57600081600090555060010162002de3565b5090565b9056fe60806040523480156200001157600080fd5b5060405162002b1638038062002b16833981810160405260a08110156200003757600080fd5b810190808051906020019092919080519060200190929190805160405193929190846401000000008211156200006c57600080fd5b838201915060208201858111156200008357600080fd5b8251866001820283011164010000000082111715620000a157600080fd5b8083526020830192505050908051906020019080838360005b83811015620000d7578082015181840152602081019050620000ba565b50505050905090810190601f168015620001055780820380516001836020036101000a031916815260200191505b506040526020018051906020019092919080519060200190929190505050846000806101000a81548173ffffffffffffffffffffffffffffffffffffffff021916908373ffffffffffffffffffffffffffffffffffffffff16021790555083600260006101000a81548173ffffffffffffffffffffffffffffffffffffffff021916908373ffffffffffffffffffffffffffffffffffffffff1602179055508260039080519060200190620001bc9291906200024a565b5081600460006101000a81548173ffffffffffffffffffffffffffffffffffffffff021916908373ffffffffffffffffffffffffffffffffffffffff16021790555080600160006101000a81548173ffffffffffffffffffffffffffffffffffffffff021916908373ffffffffffffffffffffffffffffffffffffffff1602179055505050505050620002f9565b828054600181600116156101000203166002900490600052602060002090601f016020900481019282601f106200028d57805160ff1916838001178555620002be565b82800160010185558215620002be579182015b82811115620002bd578251825591602001919060010190620002a0565b5b509050620002cd9190620002d1565b5090565b620002f691905b80821115620002f2576000816000905550600101620002d8565b5090565b90565b61280d80620003096000396000f3fe608060405234801561001057600080fd5b50600436106100f55760003560e01c80638adaf2f911610097578063dbb2adfb11610066578063dbb2adfb146108f8578063e64e645c1461093c578063f703160d14610986578063fd5529c014610d51576100f5565b80638adaf2f9146105895780638da5cb5b14610673578063a2522b4d146106bd578063aacd6a1214610701576100f5565b806344da10df116100d357806344da10df1461030c5780634f8632ba146103f65780634fb2e45d146104405780638a8bb41314610484576100f5565b806328c1f99b146100fa57806338d170731461014457806342472273146102c8575b600080fd5b610102610f48565b604051808273ffffffffffffffffffffffffffffffffffffffff1673ffffffffffffffffffffffffffffffffffffffff16815260200191505060405180910390f35b6102c6600480360360e081101561015a57600080fd5b810190808035906020019064010000000081111561017757600080fd5b82018360208201111561018957600080fd5b803590602001918460018302840111640100000000831117156101ab57600080fd5b91908080601f016020809104026020016040519081016040528093929190818152602001838380828437600081840152601f19601f820116905080830192505050505050509192919290803590602001909291908035906020019064010000000081111561021857600080fd5b82018360208201111561022a57600080fd5b8035906020019184600183028401116401000000008311171561024c57600080fd5b91908080601f016020809104026020016040519081016040528093929190818152602001838380828437600081840152601f19601f82011690508083019250505050505050919291929080359060200190929190803590602001909291908035906020019092919080359060200190929190505050610f6e565b005b61030a600480360360208110156102de57600080fd5b81019080803573ffffffffffffffffffffffffffffffffffffffff1690602001909291905050506110ee565b005b6103d96004803603606081101561032257600080fd5b810190808035906020019064010000000081111561033f57600080fd5b82018360208201111561035157600080fd5b8035906020019184600183028401116401000000008311171561037357600080fd5b91908080601f016020809104026020016040519081016040528093929190818152602001838380828437600081840152601f19601f82011690508083019250505050505050919291929080359060200190929190803590602001909291905050506111ee565b604051808381526020018281526020019250505060405180910390f35b6103fe61136f565b604051808273ffffffffffffffffffffffffffffffffffffffff1673ffffffffffffffffffffffffffffffffffffffff16815260200191505060405180910390f35b6104826004803603602081101561045657600080fd5b81019080803573ffffffffffffffffffffffffffffffffffffffff169060200190929190505050611395565b005b61056f600480360360c081101561049a57600080fd5b81019080803590602001906401000000008111156104b757600080fd5b8201836020820111156104c957600080fd5b803590602001918460018302840111640100000000831117156104eb57600080fd5b91908080601f016020809104026020016040519081016040528093929190818152602001838380828437600081840152601f19601f8201169050808301925050505050505091929192908035906020019092919080359060200190929190803590602001909291908035906020019092919080359060200190929190505050611494565b604051808215151515815260200191505060405180910390f35b6106566004803603606081101561059f57600080fd5b81019080803590602001906401000000008111156105bc57600080fd5b8201836020820111156105ce57600080fd5b803590602001918460018302840111640100000000831117156105f057600080fd5b91908080601f016020809104026020016040519081016040528093929190818152602001838380828437600081840152601f19601f82011690508083019250505050505050919291929080359060200190929190803590602001909291905050506119a8565b604051808381526020018281526020019250505060405180910390f35b61067b611b29565b604051808273ffffffffffffffffffffffffffffffffffffffff1673ffffffffffffffffffffffffffffffffffffffff16815260200191505060405180910390f35b6106ff600480360360208110156106d357600080fd5b81019080803573ffffffffffffffffffffffffffffffffffffffff169060200190929190505050611b4e565b005b6108f6600480360360a081101561071757600080fd5b810190808035906020019064010000000081111561073457600080fd5b82018360208201111561074657600080fd5b8035906020019184600183028401116401000000008311171561076857600080fd5b91908080601f016020809104026020016040519081016040528093929190818152602001838380828437600081840152601f19601f820116905080830192505050505050509192919290803590602001906401000000008111156107cb57600080fd5b8201836020820111156107dd57600080fd5b803590602001918460208302840111640100000000831117156107ff57600080fd5b919080806020026020016040519081016040528093929190818152602001838360200280828437600081840152601f19601f8201169050808301925050505050505091929192908035906020019064010000000081111561085f57600080fd5b82018360208201111561087157600080fd5b8035906020019184602083028401116401000000008311171561089357600080fd5b919080806020026020016040519081016040528093929190818152602001838360200280828437600081840152601f19601f8201169050808301925050505050505091929192908035906020019092919080359060200190929190505050611c4f565b005b61093a6004803603602081101561090e57600080fd5b81019080803573ffffffffffffffffffffffffffffffffffffffff169060200190929190505050611fa1565b005b6109446120a1565b604051808273ffffffffffffffffffffffffffffffffffffffff1673ffffffffffffffffffffffffffffffffffffffff16815260200191505060405180910390f35b610d4f600480360361014081101561099d57600080fd5b81019080803590602001906401000000008111156109ba57600080fd5b8201836020820111156109cc57600080fd5b803590602001918460018302840111640100000000831117156109ee57600080fd5b91908080601f016020809104026020016040519081016040528093929190818152602001838380828437600081840152601f19601f82011690508083019250505050505050919291929080359060200190640100000000811115610a5157600080fd5b820183602082011115610a6357600080fd5b80359060200191846020830284011164010000000083111715610a8557600080fd5b919080806020026020016040519081016040528093929190818152602001838360200280828437600081840152601f19601f82011690508083019250505050505050919291929080359060200190640100000000811115610ae557600080fd5b820183602082011115610af757600080fd5b80359060200191846020830284011164010000000083111715610b1957600080fd5b919080806020026020016040519081016040528093929190818152602001838360200280828437600081840152601f19601f820116905080830192505050505050509192919290803590602001909291908035906020019092919080359060200190640100000000811115610b8d57600080fd5b820183602082011115610b9f57600080fd5b80359060200191846001830284011164010000000083111715610bc157600080fd5b91908080601f016020809104026020016040519081016040528093929190818152602001838380828437600081840152601f19601f82011690508083019250505050505050919291929080359060200190640100000000811115610c2457600080fd5b820183602082011115610c3657600080fd5b80359060200191846020830284011164010000000083111715610c5857600080fd5b919080806020026020016040519081016040528093929190818152602001838360200280828437600081840152601f19601f82011690508083019250505050505050919291929080359060200190640100000000811115610cb857600080fd5b820183602082011115610cca57600080fd5b80359060200191846020830284011164010000000083111715610cec57600080fd5b919080806020026020016040519081016040528093929190818152602001838360200280828437600081840152601f19601f82011690508083019250505050505050919291929080359060200190929190803590602001909291905050506120c7565b005b610f46600480360360a0811015610d6757600080fd5b8101908080359060200190640100000000811115610d8457600080fd5b820183602082011115610d9657600080fd5b80359060200191846001830284011164010000000083111715610db857600080fd5b91908080601f016020809104026020016040519081016040528093929190818152602001838380828437600081840152601f19601f82011690508083019250505050505050919291929080359060200190640100000000811115610e1b57600080fd5b820183602082011115610e2d57600080fd5b80359060200191846020830284011164010000000083111715610e4f57600080fd5b919080806020026020016040519081016040528093929190818152602001838360200280828437600081840152601f19601f82011690508083019250505050505050919291929080359060200190640100000000811115610eaf57600080fd5b820183602082011115610ec157600080fd5b80359060200191846020830284011164010000000083111715610ee357600080fd5b919080806020026020016040519081016040528093929190818152602001838360200280828437600081840152601f19601f8201169050808301925050505050505091929192908035906020019092919080359060200190929190505050612486565b005b600460009054906101000a900473ffffffffffffffffffffffffffffffffffffffff1681565b6000809054906101000a900473ffffffffffffffffffffffffffffffffffffffff1673ffffffffffffffffffffffffffffffffffffffff163373ffffffffffffffffffffffffffffffffffffffff1614610fc757600080fd5b81856040518082805190602001908083835b60208310610ffc5780518252602082019150602081019050602083039250610fd9565b6001836020036101000a03801982511681845116808217855250505050505090500191505060405180910390207f91f1c803f915ff4e4371f1b9e70e4b729caed69c00b024fb2e0d045663c7ffba89898888876040518080602001868152602001858152602001848152602001838152602001828103825287818151815260200191508051906020019080838360005b838110156110a757808201518184015260208101905061108c565b50505050905090810190601f1680156110d45780820380516001836020036101000a031916815260200191505b50965050505050505060405180910390a350505050505050565b6000809054906101000a900473ffffffffffffffffffffffffffffffffffffffff1673ffffffffffffffffffffffffffffffffffffffff163373ffffffffffffffffffffffffffffffffffffffff161461114757600080fd5b80600160006101000a81548173ffffffffffffffffffffffffffffffffffffffff021916908373ffffffffffffffffffffffffffffffffffffffff1602179055507f212fd0ba98c7174b59c3621214e639e0c0429a3a38275728418c460425eda1eb81604051808273ffffffffffffffffffffffffffffffffffffffff1673ffffffffffffffffffffffffffffffffffffffff16815260200191505060405180910390a150565b600080600260009054906101000a900473ffffffffffffffffffffffffffffffffffffffff1673ffffffffffffffffffffffffffffffffffffffff163373ffffffffffffffffffffffffffffffffffffffff161461124b57600080fd5b6005856040518082805190602001908083835b60208310611281578051825260208201915060208101905060208303925061125e565b6001836020036101000a038019825116818451168082178552505050505050905001915050908152602001604051809103902060008581526020019081526020016000206000848152602001908152602001600020546006866040518082805190602001908083835b6020831061130d57805182526020820191506020810190506020830392506112ea565b6001836020036101000a0380198251168184511680821785525050505050509050019150509081526020016040518091039020600086815260200190815260200160002060008581526020019081526020016000205491509150935093915050565b600260009054906101000a900473ffffffffffffffffffffffffffffffffffffffff1681565b6000809054906101000a900473ffffffffffffffffffffffffffffffffffffffff1673ffffffffffffffffffffffffffffffffffffffff163373ffffffffffffffffffffffffffffffffffffffff16146113ee57600080fd5b806000806101000a81548173ffffffffffffffffffffffffffffffffffffffff021916908373ffffffffffffffffffffffffffffffffffffffff1602179055507f686812491fef51d22aaa1c0edb55989394e0fd256443d6d4a3e1cc0dc31780e181604051808273ffffffffffffffffffffffffffffffffffffffff1673ffffffffffffffffffffffffffffffffffffffff16815260200191505060405180910390a150565b60008060009054906101000a900473ffffffffffffffffffffffffffffffffffffffff1673ffffffffffffffffffffffffffffffffffffffff163373ffffffffffffffffffffffffffffffffffffffff16146114ef57600080fd5b6007876040518082805190602001908083835b602083106115255780518252602082019150602081019050602083039250611502565b6001836020036101000a03801982511681845116808217855250505050505090500191505090815260200160405180910390206000878152602001908152602001600020600080815260200190815260200160002054821015801561161557506008876040518082805190602001908083835b602083106115bb5780518252602082019150602081019050602083039250611598565b6001836020036101000a038019825116818451168082178552505050505050905001915050908152602001604051809103902060008781526020019081526020016000206000808152602001908152602001600020548211155b8061174257506007876040518082805190602001908083835b60208310611651578051825260208201915060208101905060208303925061162e565b6001836020036101000a03801982511681845116808217855250505050505090500191505090815260200160405180910390206000878152602001908152602001600020600086815260200190815260200160002054821015801561174157506008876040518082805190602001908083835b602083106116e757805182526020820191506020810190506020830392506116c4565b6001836020036101000a038019825116818451168082178552505050505050905001915050908152602001604051809103902060008781526020019081526020016000206000868152602001908152602001600020548211155b5b8061186f57506007876040518082805190602001908083835b6020831061177e578051825260208201915060208101905060208303925061175b565b6001836020036101000a03801982511681845116808217855250505050505090500191505090815260200160405180910390206000878152602001908152602001600020600085815260200190815260200160002054821015801561186e57506008876040518082805190602001908083835b6020831061181457805182526020820191506020810190506020830392506117f1565b6001836020036101000a038019825116818451168082178552505050505050905001915050908152602001604051809103902060008781526020019081526020016000206000858152602001908152602001600020548211155b5b8061199c57506005876040518082805190602001908083835b602083106118ab5780518252602082019150602081019050602083039250611888565b6001836020036101000a03801982511681845116808217855250505050505090500191505090815260200160405180910390206000878152602001908152602001600020600084815260200190815260200160002054821015801561199b57506006876040518082805190602001908083835b60208310611941578051825260208201915060208101905060208303925061191e565b6001836020036101000a038019825116818451168082178552505050505050905001915050908152602001604051809103902060008781526020019081526020016000206000848152602001908152602001600020548211155b5b90509695505050505050565b600080600260009054906101000a900473ffffffffffffffffffffffffffffffffffffffff1673ffffffffffffffffffffffffffffffffffffffff163373ffffffffffffffffffffffffffffffffffffffff1614611a0557600080fd5b6007856040518082805190602001908083835b60208310611a3b5780518252602082019150602081019050602083039250611a18565b6001836020036101000a038019825116818451168082178552505050505050905001915050908152602001604051809103902060008581526020019081526020016000206000848152602001908152602001600020546008866040518082805190602001908083835b60208310611ac75780518252602082019150602081019050602083039250611aa4565b6001836020036101000a0380198251168184511680821785525050505050509050019150509081526020016040518091039020600086815260200190815260200160002060008581526020019081526020016000205491509150935093915050565b6000809054906101000a900473ffffffffffffffffffffffffffffffffffffffff1681565b600460009054906101000a900473ffffffffffffffffffffffffffffffffffffffff1673ffffffffffffffffffffffffffffffffffffffff163373ffffffffffffffffffffffffffffffffffffffff1614611ba857600080fd5b80600260006101000a81548173ffffffffffffffffffffffffffffffffffffffff021916908373ffffffffffffffffffffffffffffffffffffffff1602179055507f8843fe3c31cc61dc66ac4737567198edfeaf40be1c8fc90af728d9dc70898c3381604051808273ffffffffffffffffffffffffffffffffffffffff1673ffffffffffffffffffffffffffffffffffffffff16815260200191505060405180910390a150565b600260009054906101000a900473ffffffffffffffffffffffffffffffffffffffff1673ffffffffffffffffffffffffffffffffffffffff163373ffffffffffffffffffffffffffffffffffffffff1614611ca957600080fd5b60008090505b8451811015611e5b5760008090505b8451811015611e4d5782841115611cd457600080fd5b836005886040518082805190602001908083835b60208310611d0b5780518252602082019150602081019050602083039250611ce8565b6001836020036101000a03801982511681845116808217855250505050505090500191505090815260200160405180910390206000888581518110611d4c57fe5b602002602001015181526020019081526020016000206000878481518110611d7057fe5b6020026020010151815260200190815260200160002081905550826006886040518082805190602001908083835b60208310611dc15780518252602082019150602081019050602083039250611d9e565b6001836020036101000a03801982511681845116808217855250505050505090500191505090815260200160405180910390206000888581518110611e0257fe5b602002602001015181526020019081526020016000206000878481518110611e2657fe5b60200260200101518152602001908152602001600020819055508080600101915050611cbe565b508080600101915050611caf565b507ffa30f0e2a0a8519fdba257e30abe2229b482696540c2ce3ba2462ffdfa88ab8d858585858560405180806020018060200180602001868152602001858152602001848103845289818151815260200191508051906020019080838360005b83811015611ed6578082015181840152602081019050611ebb565b50505050905090810190601f168015611f035780820380516001836020036101000a031916815260200191505b50848103835288818151815260200191508051906020019060200280838360005b83811015611f3f578082015181840152602081019050611f24565b50505050905001848103825287818151815260200191508051906020019060200280838360005b83811015611f81578082015181840152602081019050611f66565b505050509050019850505050505050505060405180910390a15050505050565b6000809054906101000a900473ffffffffffffffffffffffffffffffffffffffff1673ffffffffffffffffffffffffffffffffffffffff163373ffffffffffffffffffffffffffffffffffffffff1614611ffa57600080fd5b80600460006101000a81548173ffffffffffffffffffffffffffffffffffffffff021916908373ffffffffffffffffffffffffffffffffffffffff1602179055507f21340f6870149aee5e87711f88f9eb35e64c40f28be9566ebcd715d13b87a78f81604051808273ffffffffffffffffffffffffffffffffffffffff1673ffffffffffffffffffffffffffffffffffffffff16815260200191505060405180910390a150565b600160009054906101000a900473ffffffffffffffffffffffffffffffffffffffff1681565b600260009054906101000a900473ffffffffffffffffffffffffffffffffffffffff1673ffffffffffffffffffffffffffffffffffffffff163373ffffffffffffffffffffffffffffffffffffffff161461212157600080fd5b60008090505b89518110156122c65760008090505b89518110156122b8578860078d6040518082805190602001908083835b602083106121765780518252602082019150602081019050602083039250612153565b6001836020036101000a038019825116818451168082178552505050505050905001915050908152602001604051809103902060008d85815181106121b757fe5b6020026020010151815260200190815260200160002060008c84815181106121db57fe5b60200260200101518152602001908152602001600020819055508760088d6040518082805190602001908083835b6020831061222c5780518252602082019150602081019050602083039250612209565b6001836020036101000a038019825116818451168082178552505050505050905001915050908152602001604051809103902060008d858151811061226d57fe5b6020026020010151815260200190815260200160002060008c848151811061229157fe5b60200260200101518152602001908152602001600020819055508080600101915050612136565b508080600101915050612127565b5060008090505b84518110156124795760008090505b845181101561246b57828411156122f257600080fd5b836007886040518082805190602001908083835b602083106123295780518252602082019150602081019050602083039250612306565b6001836020036101000a0380198251168184511680821785525050505050509050019150509081526020016040518091039020600088858151811061236a57fe5b60200260200101518152602001908152602001600020600087848151811061238e57fe5b6020026020010151815260200190815260200160002081905550826008886040518082805190602001908083835b602083106123df57805182526020820191506020810190506020830392506123bc565b6001836020036101000a0380198251168184511680821785525050505050509050019150509081526020016040518091039020600088858151811061242057fe5b60200260200101518152602001908152602001600020600087848151811061244457fe5b602002602001015181526020019081526020016000208190555080806001019150506122dc565b5080806001019150506122cd565b5050505050505050505050565b600260009054906101000a900473ffffffffffffffffffffffffffffffffffffffff1673ffffffffffffffffffffffffffffffffffffffff163373ffffffffffffffffffffffffffffffffffffffff16146124e057600080fd5b60008090505b84518110156126925760008090505b8451811015612684578284111561250b57600080fd5b836007886040518082805190602001908083835b60208310612542578051825260208201915060208101905060208303925061251f565b6001836020036101000a0380198251168184511680821785525050505050509050019150509081526020016040518091039020600088858151811061258357fe5b6020026020010151815260200190815260200160002060008784815181106125a757fe5b6020026020010151815260200190815260200160002081905550826008886040518082805190602001908083835b602083106125f857805182526020820191506020810190506020830392506125d5565b6001836020036101000a0380198251168184511680821785525050505050509050019150509081526020016040518091039020600088858151811061263957fe5b60200260200101518152602001908152602001600020600087848151811061265d57fe5b602002602001015181526020019081526020016000208190555080806001019150506124f5565b5080806001019150506124e6565b507f0791d378931781e9cffd4585b49ffbc18f66fa0c5405392feefb329c3b231bb8858585858560405180806020018060200180602001868152602001858152602001848103845289818151815260200191508051906020019080838360005b8381101561270d5780820151818401526020810190506126f2565b50505050905090810190601f16801561273a5780820380516001836020036101000a031916815260200191505b50848103835288818151815260200191508051906020019060200280838360005b8381101561277657808201518184015260208101905061275b565b50505050905001848103825287818151815260200191508051906020019060200280838360005b838110156127b857808201518184015260208101905061279d565b505050509050019850505050505050505060405180910390a1505050505056fea265627a7a72315820be6ff710e8c3a532b5c06bcf63209f51ff5d1904752a48a263437e2e0c68a2c464736f6c63430005100032a265627a7a72315820d2b4d3f87a0afb6d2672d3d7d0067582b7a86ecfdd32e4d6a68d0784e649778564736f6c63430005100032",
  "source": "pragma solidity >=0.4.21 <0.7.0;\n//pragma experimental ABIEncoderV2;\n\nimport \"./CareRecordConsent.sol\";\n\ncontract RegistryContract{\n\n    address public owner;\n\n    struct User {\n        string u_id; //user \n        address CareRecordConsentAddr; //user \n        address etherAddr; //user ethereum (EOA);\n        address witnessAddr; //user address\n        uint accountStatus; //user 0=>1=>\n    }\n\n    event setNewUser(string u_id, address etherAddr, address _witnessAddr, address CareRecordConsentAddr, uint now);\n    event changeAccountStatus(string u_id, uint accountStatus, uint now);\n    event changeEthAddr(string u_id, address CareRecordConsentAddr, address etherAddr, uint accountStatus, uint now);\n    event changeWitness(string u_id, address NewWitnessAddr, uint now);\n    event changeCareRecordConsentAddr(string u_id, address CareRecordConsentAddr, uint now);\n    event manageWitness(address witnessAddr, bool oldIsWitnesses, bool NewIsWitnesses,uint now);\n\n    mapping (string=>User) users; //user(uid)\n    mapping (address=>bool) witnesses; //()\n    string[] userIndex;\n    address[] witnessIndex;\n    \n    constructor() public {\n        owner = msg.sender;\n    }\n\n    modifier isOwner() {\n        require(msg.sender == owner);\n        _;\n    }\n    modifier isWitness() { //msg.sender\n        require(witnesses[msg.sender]);\n        _;\n    }\n    modifier isSameWitness(string memory _u_id) { //msg.sender user\n        require(msg.sender == users[_u_id].witnessAddr);\n        _;\n    }\n\n    function getOwner() public view returns (address) {\n        return owner;\n    }\n\n    //user\n    function registerUser(string memory _u_id, address _etherAddr, address _witnessAddr) public isWitness {\n        require(msg.sender == _witnessAddr); //user [same as isSameWitness(), but _witnessAddr not set yet]\n        require(bytes(users[_u_id].u_id).length == 0);\n        users[_u_id].u_id = _u_id;\n        users[_u_id].etherAddr = _etherAddr;\n        users[_u_id].accountStatus = 1;\n        users[_u_id].witnessAddr = _witnessAddr;\n        users[_u_id].CareRecordConsentAddr = address(new CareRecordConsent(owner, _etherAddr, _u_id, address(this), owner));\n        userIndex.push(_u_id);\n        emit setNewUser(_u_id, _etherAddr, _witnessAddr, users[_u_id].CareRecordConsentAddr, now);\n    }\n\n    function setOldUser(string memory _u_id, address _etherAddr, uint accountStatus, address _witnessAddr, address _careRecordConsentAddr, uint time) public isOwner {\n        require(bytes(users[_u_id].u_id).length == 0);\n        users[_u_id].u_id = _u_id;\n        users[_u_id].etherAddr = _etherAddr;\n        users[_u_id].accountStatus = accountStatus;\n        users[_u_id].witnessAddr = _witnessAddr;\n        users[_u_id].CareRecordConsentAddr = _careRecordConsentAddr;\n        userIndex.push(_u_id);\n        emit setNewUser(_u_id, _etherAddr, _witnessAddr, _careRecordConsentAddr, time);\n    }\n    \n    //\n    function setWitness(string memory _u_id, address _NewWitnessAddr) public isOwner {\n        require(users[_u_id].accountStatus == 0);//\n        users[_u_id].witnessAddr = _NewWitnessAddr;\n        emit changeWitness(_u_id, _NewWitnessAddr, now);\n    }\n    \n    //user \n    function setCareRecordConsentAddr(string memory _u_id, address _CareRecordConsentAddr) public isOwner {\n        require(users[_u_id].accountStatus == 1);//\n        users[_u_id].CareRecordConsentAddr = _CareRecordConsentAddr;\n        emit changeCareRecordConsentAddr(_u_id, _CareRecordConsentAddr, now);\n    }\n    \n    //\n    function setAccountStatus(string memory _u_id, uint _accountStatus) public isOwner {\n        users[_u_id].accountStatus = _accountStatus;\n        emit changeAccountStatus(_u_id, _accountStatus, now);\n    }\n\n    //user()\n    function setEthAddr(string memory _u_id, address _newEtherAddr) public isWitness {\n        users[_u_id].etherAddr = _newEtherAddr;\n        // CareRecordConsentuser\n        CareRecordConsent(users[_u_id].CareRecordConsentAddr).transferUser(_newEtherAddr);\n        emit changeEthAddr(users[_u_id].u_id, users[_u_id].CareRecordConsentAddr, _newEtherAddr, users[_u_id].accountStatus, now);\n    }\n\n    //\n    function addWitness(address _witnessAddr) public isOwner {\n        require(!witnesses[_witnessAddr], \"the witness is already exist\");\n        bool oldWitnessStatus;\n        oldWitnessStatus = witnesses[_witnessAddr];\n        witnesses[_witnessAddr] = true;\n        \n        witnessIndex.push(_witnessAddr);\n        emit manageWitness(_witnessAddr, oldWitnessStatus, witnesses[_witnessAddr], now);\n    }\n\n    //\n    function deleteWitness(address _witnessAddr) public isOwner {\n        require(witnesses[_witnessAddr], \"the witness is not exist\");\n        bool oldWitnessStatus;\n        oldWitnessStatus = witnesses[_witnessAddr];\n        witnesses[_witnessAddr] = false;\n\n        //\n        uint len = witnessIndex.length;\n        for(uint i = 0 ; i < len ; i++){\n            if(witnessIndex[i] == _witnessAddr){\n                witnessIndex[i] = witnessIndex[len - 1];\n                witnessIndex.length--;\n                break;\n            }\n        }\n\n        emit manageWitness(_witnessAddr, oldWitnessStatus, witnesses[_witnessAddr], now);\n    }\n    \n    //user\n    function getUserCount() public view returns(uint userCount) {\n        return userIndex.length;\n    }\n\n    //get user information\n    function getUserInfo(string memory _u_id) public isOwner view returns (string memory u_id, address CareRecordConsentAddr, address etherAddr, uint accountStatus) {\n        return(users[_u_id].u_id, users[_u_id].CareRecordConsentAddr, users[_u_id].etherAddr, users[_u_id].accountStatus);\n    }\n    \n    //get \n    function getWitnesses() public view returns(address[] memory) {\n        return witnessIndex;\n    }\n\n/*string[]\n    //get user\n    function getAllUserInfo() public isOwner view  returns (string[], address[], address[], uint[]){\n        string[] memory u_ids = new string[](userIndex.length);\n        address[] memory assetAccounts = new address[](userIndex.length);\n        address[] memory etherAddrs = new address[](userIndex.length);\n        uint[]    memory accountStatus = new uint[](userIndex.length);\n\n        for (uint i = 0; i < userIndex.length; i++) {\n            User storage user = users[userIndex[i]];\n            u_ids[i] = user.u_id;\n            assetAccounts[i] = user.assetAccount;\n            etherAddrs[i] = user.etherAddr;\n            accountStatus[i] = user.accountStatus;\n        }\n\n        return (u_ids, assetAccounts, etherAddrs, accountStatus);\n    }\n*/\n\n}\n",
  "sourcePath": "/Users/roy105703007/Desktop/NTU/contracts/RegistryContract.sol",
  "compiler": {
    "name": "solc",
    "version": "0.5.16+commit.9c3226ce.Emscripten.clang"
  },
  "schemaVersion": "3.0.23",
  "updatedAt": "2020-03-30T11:31:07.429Z",
  "networkType": "ethereum",
  "devdoc": {
    "methods": {}
  },
  "userdoc": {
    "methods": {}
  }
}